{
  "contractName": "DonateNFT",
  "abi": [
    {
      "inputs": [],
      "stateMutability": "nonpayable",
      "type": "constructor"
    },
    {
      "anonymous": false,
      "inputs": [
        {
          "indexed": true,
          "internalType": "address",
          "name": "owner",
          "type": "address"
        },
        {
          "indexed": true,
          "internalType": "address",
          "name": "approved",
          "type": "address"
        },
        {
          "indexed": true,
          "internalType": "uint256",
          "name": "tokenId",
          "type": "uint256"
        }
      ],
      "name": "Approval",
      "type": "event"
    },
    {
      "anonymous": false,
      "inputs": [
        {
          "indexed": true,
          "internalType": "address",
          "name": "owner",
          "type": "address"
        },
        {
          "indexed": true,
          "internalType": "address",
          "name": "operator",
          "type": "address"
        },
        {
          "indexed": false,
          "internalType": "bool",
          "name": "approved",
          "type": "bool"
        }
      ],
      "name": "ApprovalForAll",
      "type": "event"
    },
    {
      "anonymous": false,
      "inputs": [
        {
          "indexed": true,
          "internalType": "address",
          "name": "previousOwner",
          "type": "address"
        },
        {
          "indexed": true,
          "internalType": "address",
          "name": "newOwner",
          "type": "address"
        }
      ],
      "name": "OwnershipTransferred",
      "type": "event"
    },
    {
      "anonymous": false,
      "inputs": [
        {
          "indexed": true,
          "internalType": "address",
          "name": "from",
          "type": "address"
        },
        {
          "indexed": true,
          "internalType": "address",
          "name": "to",
          "type": "address"
        },
        {
          "indexed": true,
          "internalType": "uint256",
          "name": "tokenId",
          "type": "uint256"
        }
      ],
      "name": "Transfer",
      "type": "event"
    },
    {
      "inputs": [
        {
          "internalType": "address",
          "name": "to",
          "type": "address"
        },
        {
          "internalType": "uint256",
          "name": "tokenId",
          "type": "uint256"
        }
      ],
      "name": "approve",
      "outputs": [],
      "stateMutability": "nonpayable",
      "type": "function"
    },
    {
      "inputs": [
        {
          "internalType": "address",
          "name": "owner",
          "type": "address"
        }
      ],
      "name": "balanceOf",
      "outputs": [
        {
          "internalType": "uint256",
          "name": "",
          "type": "uint256"
        }
      ],
      "stateMutability": "view",
      "type": "function"
    },
    {
      "inputs": [
        {
          "internalType": "uint256",
          "name": "tokenId",
          "type": "uint256"
        }
      ],
      "name": "getApproved",
      "outputs": [
        {
          "internalType": "address",
          "name": "",
          "type": "address"
        }
      ],
      "stateMutability": "view",
      "type": "function"
    },
    {
      "inputs": [
        {
          "internalType": "address",
          "name": "owner",
          "type": "address"
        },
        {
          "internalType": "address",
          "name": "operator",
          "type": "address"
        }
      ],
      "name": "isApprovedForAll",
      "outputs": [
        {
          "internalType": "bool",
          "name": "",
          "type": "bool"
        }
      ],
      "stateMutability": "view",
      "type": "function"
    },
    {
      "inputs": [],
      "name": "name",
      "outputs": [
        {
          "internalType": "string",
          "name": "",
          "type": "string"
        }
      ],
      "stateMutability": "view",
      "type": "function"
    },
    {
      "inputs": [],
      "name": "owner",
      "outputs": [
        {
          "internalType": "address",
          "name": "",
          "type": "address"
        }
      ],
      "stateMutability": "view",
      "type": "function"
    },
    {
      "inputs": [
        {
          "internalType": "uint256",
          "name": "tokenId",
          "type": "uint256"
        }
      ],
      "name": "ownerOf",
      "outputs": [
        {
          "internalType": "address",
          "name": "",
          "type": "address"
        }
      ],
      "stateMutability": "view",
      "type": "function"
    },
    {
      "inputs": [],
      "name": "renounceOwnership",
      "outputs": [],
      "stateMutability": "nonpayable",
      "type": "function"
    },
    {
      "inputs": [
        {
          "internalType": "address",
          "name": "from",
          "type": "address"
        },
        {
          "internalType": "address",
          "name": "to",
          "type": "address"
        },
        {
          "internalType": "uint256",
          "name": "tokenId",
          "type": "uint256"
        }
      ],
      "name": "safeTransferFrom",
      "outputs": [],
      "stateMutability": "nonpayable",
      "type": "function"
    },
    {
      "inputs": [
        {
          "internalType": "address",
          "name": "from",
          "type": "address"
        },
        {
          "internalType": "address",
          "name": "to",
          "type": "address"
        },
        {
          "internalType": "uint256",
          "name": "tokenId",
          "type": "uint256"
        },
        {
          "internalType": "bytes",
          "name": "_data",
          "type": "bytes"
        }
      ],
      "name": "safeTransferFrom",
      "outputs": [],
      "stateMutability": "nonpayable",
      "type": "function"
    },
    {
      "inputs": [
        {
          "internalType": "address",
          "name": "operator",
          "type": "address"
        },
        {
          "internalType": "bool",
          "name": "approved",
          "type": "bool"
        }
      ],
      "name": "setApprovalForAll",
      "outputs": [],
      "stateMutability": "nonpayable",
      "type": "function"
    },
    {
      "inputs": [
        {
          "internalType": "bytes4",
          "name": "interfaceId",
          "type": "bytes4"
        }
      ],
      "name": "supportsInterface",
      "outputs": [
        {
          "internalType": "bool",
          "name": "",
          "type": "bool"
        }
      ],
      "stateMutability": "view",
      "type": "function"
    },
    {
      "inputs": [],
      "name": "symbol",
      "outputs": [
        {
          "internalType": "string",
          "name": "",
          "type": "string"
        }
      ],
      "stateMutability": "view",
      "type": "function"
    },
    {
      "inputs": [
        {
          "internalType": "uint256",
          "name": "tokenId",
          "type": "uint256"
        }
      ],
      "name": "tokenURI",
      "outputs": [
        {
          "internalType": "string",
          "name": "",
          "type": "string"
        }
      ],
      "stateMutability": "view",
      "type": "function"
    },
    {
      "inputs": [
        {
          "internalType": "uint256",
          "name": "",
          "type": "uint256"
        }
      ],
      "name": "tokens",
      "outputs": [
        {
          "internalType": "address",
          "name": "owner",
          "type": "address"
        },
        {
          "internalType": "uint256",
          "name": "tokenId",
          "type": "uint256"
        },
        {
          "internalType": "string",
          "name": "tokenURI",
          "type": "string"
        },
        {
          "internalType": "uint256",
          "name": "donateAmmount",
          "type": "uint256"
        }
      ],
      "stateMutability": "view",
      "type": "function"
    },
    {
      "inputs": [
        {
          "internalType": "address",
          "name": "from",
          "type": "address"
        },
        {
          "internalType": "address",
          "name": "to",
          "type": "address"
        },
        {
          "internalType": "uint256",
          "name": "tokenId",
          "type": "uint256"
        }
      ],
      "name": "transferFrom",
      "outputs": [],
      "stateMutability": "nonpayable",
      "type": "function"
    },
    {
      "inputs": [
        {
          "internalType": "address",
          "name": "newOwner",
          "type": "address"
        }
      ],
      "name": "transferOwnership",
      "outputs": [],
      "stateMutability": "nonpayable",
      "type": "function"
    },
    {
      "inputs": [],
      "name": "current",
      "outputs": [
        {
          "internalType": "uint256",
          "name": "",
          "type": "uint256"
        }
      ],
      "stateMutability": "view",
      "type": "function"
    },
    {
      "inputs": [
        {
          "internalType": "uint256",
          "name": "tokenId",
          "type": "uint256"
        }
      ],
      "name": "getTokenById",
      "outputs": [
        {
          "components": [
            {
              "internalType": "address",
              "name": "owner",
              "type": "address"
            },
            {
              "internalType": "uint256",
              "name": "tokenId",
              "type": "uint256"
            },
            {
              "internalType": "string",
              "name": "tokenURI",
              "type": "string"
            },
            {
              "internalType": "uint256",
              "name": "donateAmmount",
              "type": "uint256"
            }
          ],
          "internalType": "struct DonateNFT.Tokens",
          "name": "",
          "type": "tuple"
        }
      ],
      "stateMutability": "view",
      "type": "function"
    },
    {
      "inputs": [
        {
          "internalType": "address",
          "name": "owner",
          "type": "address"
        },
        {
          "internalType": "string",
          "name": "_tokenURI",
          "type": "string"
        },
        {
          "internalType": "uint256",
          "name": "price",
          "type": "uint256"
        }
      ],
      "name": "create",
      "outputs": [
        {
          "internalType": "uint256",
          "name": "",
          "type": "uint256"
        }
      ],
      "stateMutability": "nonpayable",
      "type": "function"
    },
    {
      "inputs": [
        {
          "internalType": "address",
          "name": "target",
          "type": "address"
        }
      ],
      "name": "getTokensByWallet",
      "outputs": [
        {
          "components": [
            {
              "internalType": "address",
              "name": "owner",
              "type": "address"
            },
            {
              "internalType": "uint256",
              "name": "tokenId",
              "type": "uint256"
            },
            {
              "internalType": "string",
              "name": "tokenURI",
              "type": "string"
            },
            {
              "internalType": "uint256",
              "name": "donateAmmount",
              "type": "uint256"
            }
          ],
          "internalType": "struct DonateNFT.Tokens[]",
          "name": "",
          "type": "tuple[]"
        }
      ],
      "stateMutability": "view",
      "type": "function"
    }
  ],
  "bytecode": "0x60806040523480156200001157600080fd5b506040518060400160405280600981526020017f446f6e6174654e465400000000000000000000000000000000000000000000008152506040518060400160405280600881526020017f446f6e6174696f6e000000000000000000000000000000000000000000000000815250816000908051906020019062000096929190620001a6565b508060019080519060200190620000af929190620001a6565b505050620000d2620000c6620000d860201b60201c565b620000e060201b60201c565b620002bb565b600033905090565b6000600660009054906101000a900473ffffffffffffffffffffffffffffffffffffffff16905081600660006101000a81548173ffffffffffffffffffffffffffffffffffffffff021916908373ffffffffffffffffffffffffffffffffffffffff1602179055508173ffffffffffffffffffffffffffffffffffffffff168173ffffffffffffffffffffffffffffffffffffffff167f8be0079c531659141344cd1fd0a4f28419497f9722a3daafe3b4186f6b6457e060405160405180910390a35050565b828054620001b49062000285565b90600052602060002090601f016020900481019282620001d8576000855562000224565b82601f10620001f357805160ff191683800117855562000224565b8280016001018555821562000224579182015b828111156200022357825182559160200191906001019062000206565b5b50905062000233919062000237565b5090565b5b808211156200025257600081600090555060010162000238565b5090565b7f4e487b7100000000000000000000000000000000000000000000000000000000600052602260045260246000fd5b600060028204905060018216806200029e57607f821691505b60208210811415620002b557620002b462000256565b5b50919050565b6135cb80620002cb6000396000f3fe608060405234801561001057600080fd5b50600436106101375760003560e01c80637bdc60d9116100b8578063b88d4fde1161007c578063b88d4fde14610351578063ba8ff04a1461036d578063c87b56dd1461039d578063d3b90b30146103cd578063e985e9c5146103fd578063f2fde38b1461042d57610137565b80637bdc60d9146102ab5780638da5cb5b146102db57806395d89b41146102f95780639fa6a6e314610317578063a22cb4651461033557610137565b806342842e0e116100ff57806342842e0e146101f25780634f64b2be1461020e5780636352211e1461024157806370a0823114610271578063715018a6146102a157610137565b806301ffc9a71461013c57806306fdde031461016c578063081812fc1461018a578063095ea7b3146101ba57806323b872dd146101d6575b600080fd5b610156600480360381019061015191906120c0565b610449565b6040516101639190612108565b60405180910390f35b61017461052b565b60405161018191906121bc565b60405180910390f35b6101a4600480360381019061019f9190612214565b6105bd565b6040516101b19190612282565b60405180910390f35b6101d460048036038101906101cf91906122c9565b610642565b005b6101f060048036038101906101eb9190612309565b61075a565b005b61020c60048036038101906102079190612309565b6107ba565b005b61022860048036038101906102239190612214565b6107da565b604051610238949392919061236b565b60405180910390f35b61025b60048036038101906102569190612214565b6108c2565b6040516102689190612282565b60405180910390f35b61028b600480360381019061028691906123b7565b610974565b60405161029891906123e4565b60405180910390f35b6102a9610a2c565b005b6102c560048036038101906102c09190612214565b610ab4565b6040516102d291906124ca565b60405180910390f35b6102e3610bec565b6040516102f09190612282565b60405180910390f35b610301610c16565b60405161030e91906121bc565b60405180910390f35b61031f610ca8565b60405161032c91906123e4565b60405180910390f35b61034f600480360381019061034a9190612518565b610cb2565b005b61036b6004803603810190610366919061268d565b610cc8565b005b610387600480360381019061038291906127b1565b610d2a565b60405161039491906123e4565b60405180910390f35b6103b760048036038101906103b29190612214565b610e26565b6040516103c491906121bc565b60405180910390f35b6103e760048036038101906103e291906123b7565b610f28565b6040516103f49190612945565b60405180910390f35b61041760048036038101906104129190612967565b611185565b6040516104249190612108565b60405180910390f35b610447600480360381019061044291906123b7565b611219565b005b60007f80ac58cd000000000000000000000000000000000000000000000000000000007bffffffffffffffffffffffffffffffffffffffffffffffffffffffff1916827bffffffffffffffffffffffffffffffffffffffffffffffffffffffff1916148061051457507f5b5e139f000000000000000000000000000000000000000000000000000000007bffffffffffffffffffffffffffffffffffffffffffffffffffffffff1916827bffffffffffffffffffffffffffffffffffffffffffffffffffffffff1916145b80610524575061052382611311565b5b9050919050565b60606000805461053a906129d6565b80601f0160208091040260200160405190810160405280929190818152602001828054610566906129d6565b80156105b35780601f10610588576101008083540402835291602001916105b3565b820191906000526020600020905b81548152906001019060200180831161059657829003601f168201915b5050505050905090565b60006105c88261137b565b610607576040517f08c379a00000000000000000000000000000000000000000000000000000000081526004016105fe90612a7a565b60405180910390fd5b6004600083815260200190815260200160002060009054906101000a900473ffffffffffffffffffffffffffffffffffffffff169050919050565b600061064d826108c2565b90508073ffffffffffffffffffffffffffffffffffffffff168373ffffffffffffffffffffffffffffffffffffffff1614156106be576040517f08c379a00000000000000000000000000000000000000000000000000000000081526004016106b590612b0c565b60405180910390fd5b8073ffffffffffffffffffffffffffffffffffffffff166106dd6113e7565b73ffffffffffffffffffffffffffffffffffffffff16148061070c575061070b816107066113e7565b611185565b5b61074b576040517f08c379a000000000000000000000000000000000000000000000000000000000815260040161074290612b9e565b60405180910390fd5b61075583836113ef565b505050565b61076b6107656113e7565b826114a8565b6107aa576040517f08c379a00000000000000000000000000000000000000000000000000000000081526004016107a190612c30565b60405180910390fd5b6107b5838383611586565b505050565b6107d583838360405180602001604052806000815250610cc8565b505050565b600981815481106107ea57600080fd5b90600052602060002090600402016000915090508060000160009054906101000a900473ffffffffffffffffffffffffffffffffffffffff1690806001015490806002018054610839906129d6565b80601f0160208091040260200160405190810160405280929190818152602001828054610865906129d6565b80156108b25780601f10610887576101008083540402835291602001916108b2565b820191906000526020600020905b81548152906001019060200180831161089557829003601f168201915b5050505050908060030154905084565b6000806002600084815260200190815260200160002060009054906101000a900473ffffffffffffffffffffffffffffffffffffffff169050600073ffffffffffffffffffffffffffffffffffffffff168173ffffffffffffffffffffffffffffffffffffffff16141561096b576040517f08c379a000000000000000000000000000000000000000000000000000000000815260040161096290612cc2565b60405180910390fd5b80915050919050565b60008073ffffffffffffffffffffffffffffffffffffffff168273ffffffffffffffffffffffffffffffffffffffff1614156109e5576040517f08c379a00000000000000000000000000000000000000000000000000000000081526004016109dc90612d54565b60405180910390fd5b600360008373ffffffffffffffffffffffffffffffffffffffff1673ffffffffffffffffffffffffffffffffffffffff168152602001908152602001600020549050919050565b610a346113e7565b73ffffffffffffffffffffffffffffffffffffffff16610a52610bec565b73ffffffffffffffffffffffffffffffffffffffff1614610aa8576040517f08c379a0000000000000000000000000000000000000000000000000000000008152600401610a9f90612dc0565b60405180910390fd5b610ab260006117ed565b565b610abc611f73565b60098281548110610ad057610acf612de0565b5b90600052602060002090600402016040518060800160405290816000820160009054906101000a900473ffffffffffffffffffffffffffffffffffffffff1673ffffffffffffffffffffffffffffffffffffffff1673ffffffffffffffffffffffffffffffffffffffff16815260200160018201548152602001600282018054610b59906129d6565b80601f0160208091040260200160405190810160405280929190818152602001828054610b85906129d6565b8015610bd25780601f10610ba757610100808354040283529160200191610bd2565b820191906000526020600020905b815481529060010190602001808311610bb557829003601f168201915b505050505081526020016003820154815250509050919050565b6000600660009054906101000a900473ffffffffffffffffffffffffffffffffffffffff16905090565b606060018054610c25906129d6565b80601f0160208091040260200160405190810160405280929190818152602001828054610c51906129d6565b8015610c9e5780601f10610c7357610100808354040283529160200191610c9e565b820191906000526020600020905b815481529060010190602001808311610c8157829003601f168201915b5050505050905090565b6000600754905090565b610cc4610cbd6113e7565b83836118b3565b5050565b610cd9610cd36113e7565b836114a8565b610d18576040517f08c379a0000000000000000000000000000000000000000000000000000000008152600401610d0f90612c30565b60405180910390fd5b610d2484848484611a20565b50505050565b6000806009805490509050610d3f8582611a7c565b600960405180608001604052808773ffffffffffffffffffffffffffffffffffffffff16815260200183815260200186815260200185815250908060018154018082558091505060019003906000526020600020906004020160009091909190915060008201518160000160006101000a81548173ffffffffffffffffffffffffffffffffffffffff021916908373ffffffffffffffffffffffffffffffffffffffff160217905550602082015181600101556040820151816002019080519060200190610e0e929190611fb1565b50606082015181600301555050809150509392505050565b6060600073ffffffffffffffffffffffffffffffffffffffff166002600084815260200190815260200160002060009054906101000a900473ffffffffffffffffffffffffffffffffffffffff1673ffffffffffffffffffffffffffffffffffffffff161415610ecb576040517f08c379a0000000000000000000000000000000000000000000000000000000008152600401610ec290612e81565b60405180910390fd5b6000610ed5611c56565b90506000815111610ef55760405180602001604052806000815250610f20565b80610eff84611c6d565b604051602001610f10929190612edd565b6040516020818303038152906040525b915050919050565b6060600060098054905067ffffffffffffffff811115610f4b57610f4a612562565b5b604051908082528060200260200182016040528015610f8457816020015b610f71611f73565b815260200190600190039081610f695790505b5090506000805b60098054905081101561117a578473ffffffffffffffffffffffffffffffffffffffff1660098281548110610fc357610fc2612de0565b5b906000526020600020906004020160000160009054906101000a900473ffffffffffffffffffffffffffffffffffffffff1673ffffffffffffffffffffffffffffffffffffffff161415611167576009818154811061102557611024612de0565b5b90600052602060002090600402016040518060800160405290816000820160009054906101000a900473ffffffffffffffffffffffffffffffffffffffff1673ffffffffffffffffffffffffffffffffffffffff1673ffffffffffffffffffffffffffffffffffffffff168152602001600182015481526020016002820180546110ae906129d6565b80601f01602080910402602001604051908101604052809291908181526020018280546110da906129d6565b80156111275780601f106110fc57610100808354040283529160200191611127565b820191906000526020600020905b81548152906001019060200180831161110a57829003601f168201915b5050505050815260200160038201548152505083838151811061114d5761114c612de0565b5b6020026020010181905250818061116390612f30565b9250505b808061117290612f30565b915050610f8b565b508192505050919050565b6000600560008473ffffffffffffffffffffffffffffffffffffffff1673ffffffffffffffffffffffffffffffffffffffff16815260200190815260200160002060008373ffffffffffffffffffffffffffffffffffffffff1673ffffffffffffffffffffffffffffffffffffffff16815260200190815260200160002060009054906101000a900460ff16905092915050565b6112216113e7565b73ffffffffffffffffffffffffffffffffffffffff1661123f610bec565b73ffffffffffffffffffffffffffffffffffffffff1614611295576040517f08c379a000000000000000000000000000000000000000000000000000000000815260040161128c90612dc0565b60405180910390fd5b600073ffffffffffffffffffffffffffffffffffffffff168173ffffffffffffffffffffffffffffffffffffffff161415611305576040517f08c379a00000000000000000000000000000000000000000000000000000000081526004016112fc90612feb565b60405180910390fd5b61130e816117ed565b50565b60007f01ffc9a7000000000000000000000000000000000000000000000000000000007bffffffffffffffffffffffffffffffffffffffffffffffffffffffff1916827bffffffffffffffffffffffffffffffffffffffffffffffffffffffff1916149050919050565b60008073ffffffffffffffffffffffffffffffffffffffff166002600084815260200190815260200160002060009054906101000a900473ffffffffffffffffffffffffffffffffffffffff1673ffffffffffffffffffffffffffffffffffffffff1614159050919050565b600033905090565b816004600083815260200190815260200160002060006101000a81548173ffffffffffffffffffffffffffffffffffffffff021916908373ffffffffffffffffffffffffffffffffffffffff160217905550808273ffffffffffffffffffffffffffffffffffffffff16611462836108c2565b73ffffffffffffffffffffffffffffffffffffffff167f8c5be1e5ebec7d5bd14f71427d1e84f3dd0314c0f7b2291e5b200ac8c7c3b92560405160405180910390a45050565b60006114b38261137b565b6114f2576040517f08c379a00000000000000000000000000000000000000000000000000000000081526004016114e99061307d565b60405180910390fd5b60006114fd836108c2565b90508073ffffffffffffffffffffffffffffffffffffffff168473ffffffffffffffffffffffffffffffffffffffff16148061153f575061153e8185611185565b5b8061157d57508373ffffffffffffffffffffffffffffffffffffffff16611565846105bd565b73ffffffffffffffffffffffffffffffffffffffff16145b91505092915050565b8273ffffffffffffffffffffffffffffffffffffffff166115a6826108c2565b73ffffffffffffffffffffffffffffffffffffffff16146115fc576040517f08c379a00000000000000000000000000000000000000000000000000000000081526004016115f39061310f565b60405180910390fd5b600073ffffffffffffffffffffffffffffffffffffffff168273ffffffffffffffffffffffffffffffffffffffff16141561166c576040517f08c379a0000000000000000000000000000000000000000000000000000000008152600401611663906131a1565b60405180910390fd5b611677838383611dce565b6116826000826113ef565b6001600360008573ffffffffffffffffffffffffffffffffffffffff1673ffffffffffffffffffffffffffffffffffffffff16815260200190815260200160002060008282546116d291906131c1565b925050819055506001600360008473ffffffffffffffffffffffffffffffffffffffff1673ffffffffffffffffffffffffffffffffffffffff168152602001908152602001600020600082825461172991906131f5565b92505081905550816002600083815260200190815260200160002060006101000a81548173ffffffffffffffffffffffffffffffffffffffff021916908373ffffffffffffffffffffffffffffffffffffffff160217905550808273ffffffffffffffffffffffffffffffffffffffff168473ffffffffffffffffffffffffffffffffffffffff167fddf252ad1be2c89b69c2b068fc378daa952ba7f163c4a11628f55a4df523b3ef60405160405180910390a46117e8838383611dd3565b505050565b6000600660009054906101000a900473ffffffffffffffffffffffffffffffffffffffff16905081600660006101000a81548173ffffffffffffffffffffffffffffffffffffffff021916908373ffffffffffffffffffffffffffffffffffffffff1602179055508173ffffffffffffffffffffffffffffffffffffffff168173ffffffffffffffffffffffffffffffffffffffff167f8be0079c531659141344cd1fd0a4f28419497f9722a3daafe3b4186f6b6457e060405160405180910390a35050565b8173ffffffffffffffffffffffffffffffffffffffff168373ffffffffffffffffffffffffffffffffffffffff161415611922576040517f08c379a000000000000000000000000000000000000000000000000000000000815260040161191990613297565b60405180910390fd5b80600560008573ffffffffffffffffffffffffffffffffffffffff1673ffffffffffffffffffffffffffffffffffffffff16815260200190815260200160002060008473ffffffffffffffffffffffffffffffffffffffff1673ffffffffffffffffffffffffffffffffffffffff16815260200190815260200160002060006101000a81548160ff0219169083151502179055508173ffffffffffffffffffffffffffffffffffffffff168373ffffffffffffffffffffffffffffffffffffffff167f17307eab39ab6107e8899845ad3d59bd9653f200f220920489ca2b5937696c3183604051611a139190612108565b60405180910390a3505050565b611a2b848484611586565b611a3784848484611dd8565b611a76576040517f08c379a0000000000000000000000000000000000000000000000000000000008152600401611a6d90613329565b60405180910390fd5b50505050565b600073ffffffffffffffffffffffffffffffffffffffff168273ffffffffffffffffffffffffffffffffffffffff161415611aec576040517f08c379a0000000000000000000000000000000000000000000000000000000008152600401611ae390613395565b60405180910390fd5b611af58161137b565b15611b35576040517f08c379a0000000000000000000000000000000000000000000000000000000008152600401611b2c90613401565b60405180910390fd5b611b4160008383611dce565b6001600360008473ffffffffffffffffffffffffffffffffffffffff1673ffffffffffffffffffffffffffffffffffffffff1681526020019081526020016000206000828254611b9191906131f5565b92505081905550816002600083815260200190815260200160002060006101000a81548173ffffffffffffffffffffffffffffffffffffffff021916908373ffffffffffffffffffffffffffffffffffffffff160217905550808273ffffffffffffffffffffffffffffffffffffffff16600073ffffffffffffffffffffffffffffffffffffffff167fddf252ad1be2c89b69c2b068fc378daa952ba7f163c4a11628f55a4df523b3ef60405160405180910390a4611c5260008383611dd3565b5050565b606060405180602001604052806000815250905090565b60606000821415611cb5576040518060400160405280600181526020017f30000000000000000000000000000000000000000000000000000000000000008152509050611dc9565b600082905060005b60008214611ce7578080611cd090612f30565b915050600a82611ce09190613450565b9150611cbd565b60008167ffffffffffffffff811115611d0357611d02612562565b5b6040519080825280601f01601f191660200182016040528015611d355781602001600182028036833780820191505090505b5090505b60008514611dc257600182611d4e91906131c1565b9150600a85611d5d9190613481565b6030611d6991906131f5565b60f81b818381518110611d7f57611d7e612de0565b5b60200101907effffffffffffffffffffffffffffffffffffffffffffffffffffffffffffff1916908160001a905350600a85611dbb9190613450565b9450611d39565b8093505050505b919050565b505050565b505050565b6000611df98473ffffffffffffffffffffffffffffffffffffffff16611f60565b15611f53578373ffffffffffffffffffffffffffffffffffffffff1663150b7a02611e226113e7565b8786866040518563ffffffff1660e01b8152600401611e449493929190613507565b6020604051808303816000875af1925050508015611e8057506040513d601f19601f82011682018060405250810190611e7d9190613568565b60015b611f03573d8060008114611eb0576040519150601f19603f3d011682016040523d82523d6000602084013e611eb5565b606091505b50600081511415611efb576040517f08c379a0000000000000000000000000000000000000000000000000000000008152600401611ef290613329565b60405180910390fd5b805181602001fd5b63150b7a0260e01b7bffffffffffffffffffffffffffffffffffffffffffffffffffffffff1916817bffffffffffffffffffffffffffffffffffffffffffffffffffffffff191614915050611f58565b600190505b949350505050565b600080823b905060008111915050919050565b6040518060800160405280600073ffffffffffffffffffffffffffffffffffffffff1681526020016000815260200160608152602001600081525090565b828054611fbd906129d6565b90600052602060002090601f016020900481019282611fdf5760008555612026565b82601f10611ff857805160ff1916838001178555612026565b82800160010185558215612026579182015b8281111561202557825182559160200191906001019061200a565b5b5090506120339190612037565b5090565b5b80821115612050576000816000905550600101612038565b5090565b6000604051905090565b600080fd5b600080fd5b60007fffffffff0000000000000000000000000000000000000000000000000000000082169050919050565b61209d81612068565b81146120a857600080fd5b50565b6000813590506120ba81612094565b92915050565b6000602082840312156120d6576120d561205e565b5b60006120e4848285016120ab565b91505092915050565b60008115159050919050565b612102816120ed565b82525050565b600060208201905061211d60008301846120f9565b92915050565b600081519050919050565b600082825260208201905092915050565b60005b8381101561215d578082015181840152602081019050612142565b8381111561216c576000848401525b50505050565b6000601f19601f8301169050919050565b600061218e82612123565b612198818561212e565b93506121a881856020860161213f565b6121b181612172565b840191505092915050565b600060208201905081810360008301526121d68184612183565b905092915050565b6000819050919050565b6121f1816121de565b81146121fc57600080fd5b50565b60008135905061220e816121e8565b92915050565b60006020828403121561222a5761222961205e565b5b6000612238848285016121ff565b91505092915050565b600073ffffffffffffffffffffffffffffffffffffffff82169050919050565b600061226c82612241565b9050919050565b61227c81612261565b82525050565b60006020820190506122976000830184612273565b92915050565b6122a681612261565b81146122b157600080fd5b50565b6000813590506122c38161229d565b92915050565b600080604083850312156122e0576122df61205e565b5b60006122ee858286016122b4565b92505060206122ff858286016121ff565b9150509250929050565b6000806000606084860312156123225761232161205e565b5b6000612330868287016122b4565b9350506020612341868287016122b4565b9250506040612352868287016121ff565b9150509250925092565b612365816121de565b82525050565b60006080820190506123806000830187612273565b61238d602083018661235c565b818103604083015261239f8185612183565b90506123ae606083018461235c565b95945050505050565b6000602082840312156123cd576123cc61205e565b5b60006123db848285016122b4565b91505092915050565b60006020820190506123f9600083018461235c565b92915050565b61240881612261565b82525050565b612417816121de565b82525050565b600082825260208201905092915050565b600061243982612123565b612443818561241d565b935061245381856020860161213f565b61245c81612172565b840191505092915050565b600060808301600083015161247f60008601826123ff565b506020830151612492602086018261240e565b50604083015184820360408601526124aa828261242e565b91505060608301516124bf606086018261240e565b508091505092915050565b600060208201905081810360008301526124e48184612467565b905092915050565b6124f5816120ed565b811461250057600080fd5b50565b600081359050612512816124ec565b92915050565b6000806040838503121561252f5761252e61205e565b5b600061253d858286016122b4565b925050602061254e85828601612503565b9150509250929050565b600080fd5b600080fd5b7f4e487b7100000000000000000000000000000000000000000000000000000000600052604160045260246000fd5b61259a82612172565b810181811067ffffffffffffffff821117156125b9576125b8612562565b5b80604052505050565b60006125cc612054565b90506125d88282612591565b919050565b600067ffffffffffffffff8211156125f8576125f7612562565b5b61260182612172565b9050602081019050919050565b82818337600083830152505050565b600061263061262b846125dd565b6125c2565b90508281526020810184848401111561264c5761264b61255d565b5b61265784828561260e565b509392505050565b600082601f83011261267457612673612558565b5b813561268484826020860161261d565b91505092915050565b600080600080608085870312156126a7576126a661205e565b5b60006126b5878288016122b4565b94505060206126c6878288016122b4565b93505060406126d7878288016121ff565b925050606085013567ffffffffffffffff8111156126f8576126f7612063565b5b6127048782880161265f565b91505092959194509250565b600067ffffffffffffffff82111561272b5761272a612562565b5b61273482612172565b9050602081019050919050565b600061275461274f84612710565b6125c2565b9050828152602081018484840111156127705761276f61255d565b5b61277b84828561260e565b509392505050565b600082601f83011261279857612797612558565b5b81356127a8848260208601612741565b91505092915050565b6000806000606084860312156127ca576127c961205e565b5b60006127d8868287016122b4565b935050602084013567ffffffffffffffff8111156127f9576127f8612063565b5b61280586828701612783565b9250506040612816868287016121ff565b9150509250925092565b600081519050919050565b600082825260208201905092915050565b6000819050602082019050919050565b600060808301600083015161286460008601826123ff565b506020830151612877602086018261240e565b506040830151848203604086015261288f828261242e565b91505060608301516128a4606086018261240e565b508091505092915050565b60006128bb838361284c565b905092915050565b6000602082019050919050565b60006128db82612820565b6128e5818561282b565b9350836020820285016128f78561283c565b8060005b85811015612933578484038952815161291485826128af565b945061291f836128c3565b925060208a019950506001810190506128fb565b50829750879550505050505092915050565b6000602082019050818103600083015261295f81846128d0565b905092915050565b6000806040838503121561297e5761297d61205e565b5b600061298c858286016122b4565b925050602061299d858286016122b4565b9150509250929050565b7f4e487b7100000000000000000000000000000000000000000000000000000000600052602260045260246000fd5b600060028204905060018216806129ee57607f821691505b60208210811415612a0257612a016129a7565b5b50919050565b7f4552433732313a20617070726f76656420717565727920666f72206e6f6e657860008201527f697374656e7420746f6b656e0000000000000000000000000000000000000000602082015250565b6000612a64602c8361212e565b9150612a6f82612a08565b604082019050919050565b60006020820190508181036000830152612a9381612a57565b9050919050565b7f4552433732313a20617070726f76616c20746f2063757272656e74206f776e6560008201527f7200000000000000000000000000000000000000000000000000000000000000602082015250565b6000612af660218361212e565b9150612b0182612a9a565b604082019050919050565b60006020820190508181036000830152612b2581612ae9565b9050919050565b7f4552433732313a20617070726f76652063616c6c6572206973206e6f74206f7760008201527f6e6572206e6f7220617070726f76656420666f7220616c6c0000000000000000602082015250565b6000612b8860388361212e565b9150612b9382612b2c565b604082019050919050565b60006020820190508181036000830152612bb781612b7b565b9050919050565b7f4552433732313a207472616e736665722063616c6c6572206973206e6f74206f60008201527f776e6572206e6f7220617070726f766564000000000000000000000000000000602082015250565b6000612c1a60318361212e565b9150612c2582612bbe565b604082019050919050565b60006020820190508181036000830152612c4981612c0d565b9050919050565b7f4552433732313a206f776e657220717565727920666f72206e6f6e657869737460008201527f656e7420746f6b656e0000000000000000000000000000000000000000000000602082015250565b6000612cac60298361212e565b9150612cb782612c50565b604082019050919050565b60006020820190508181036000830152612cdb81612c9f565b9050919050565b7f4552433732313a2062616c616e636520717565727920666f7220746865207a6560008201527f726f206164647265737300000000000000000000000000000000000000000000602082015250565b6000612d3e602a8361212e565b9150612d4982612ce2565b604082019050919050565b60006020820190508181036000830152612d6d81612d31565b9050919050565b7f4f776e61626c653a2063616c6c6572206973206e6f7420746865206f776e6572600082015250565b6000612daa60208361212e565b9150612db582612d74565b602082019050919050565b60006020820190508181036000830152612dd981612d9d565b9050919050565b7f4e487b7100000000000000000000000000000000000000000000000000000000600052603260045260246000fd5b7f4552433732314d657461646174613a2055524920717565727920666f72206e6f60008201527f6e6578697374656e7420746f6b656e0000000000000000000000000000000000602082015250565b6000612e6b602f8361212e565b9150612e7682612e0f565b604082019050919050565b60006020820190508181036000830152612e9a81612e5e565b9050919050565b600081905092915050565b6000612eb782612123565b612ec18185612ea1565b9350612ed181856020860161213f565b80840191505092915050565b6000612ee98285612eac565b9150612ef58284612eac565b91508190509392505050565b7f4e487b7100000000000000000000000000000000000000000000000000000000600052601160045260246000fd5b6000612f3b826121de565b91507fffffffffffffffffffffffffffffffffffffffffffffffffffffffffffffffff821415612f6e57612f6d612f01565b5b600182019050919050565b7f4f776e61626c653a206e6577206f776e657220697320746865207a65726f206160008201527f6464726573730000000000000000000000000000000000000000000000000000602082015250565b6000612fd560268361212e565b9150612fe082612f79565b604082019050919050565b6000602082019050818103600083015261300481612fc8565b9050919050565b7f4552433732313a206f70657261746f7220717565727920666f72206e6f6e657860008201527f697374656e7420746f6b656e0000000000000000000000000000000000000000602082015250565b6000613067602c8361212e565b91506130728261300b565b604082019050919050565b600060208201905081810360008301526130968161305a565b9050919050565b7f4552433732313a207472616e736665722066726f6d20696e636f72726563742060008201527f6f776e6572000000000000000000000000000000000000000000000000000000602082015250565b60006130f960258361212e565b91506131048261309d565b604082019050919050565b60006020820190508181036000830152613128816130ec565b9050919050565b7f4552433732313a207472616e7366657220746f20746865207a65726f2061646460008201527f7265737300000000000000000000000000000000000000000000000000000000602082015250565b600061318b60248361212e565b91506131968261312f565b604082019050919050565b600060208201905081810360008301526131ba8161317e565b9050919050565b60006131cc826121de565b91506131d7836121de565b9250828210156131ea576131e9612f01565b5b828203905092915050565b6000613200826121de565b915061320b836121de565b9250827fffffffffffffffffffffffffffffffffffffffffffffffffffffffffffffffff038211156132405761323f612f01565b5b828201905092915050565b7f4552433732313a20617070726f766520746f2063616c6c657200000000000000600082015250565b600061328160198361212e565b915061328c8261324b565b602082019050919050565b600060208201905081810360008301526132b081613274565b9050919050565b7f4552433732313a207472616e7366657220746f206e6f6e20455243373231526560008201527f63656976657220696d706c656d656e7465720000000000000000000000000000602082015250565b600061331360328361212e565b915061331e826132b7565b604082019050919050565b6000602082019050818103600083015261334281613306565b9050919050565b7f4552433732313a206d696e7420746f20746865207a65726f2061646472657373600082015250565b600061337f60208361212e565b915061338a82613349565b602082019050919050565b600060208201905081810360008301526133ae81613372565b9050919050565b7f4552433732313a20746f6b656e20616c7265616479206d696e74656400000000600082015250565b60006133eb601c8361212e565b91506133f6826133b5565b602082019050919050565b6000602082019050818103600083015261341a816133de565b9050919050565b7f4e487b7100000000000000000000000000000000000000000000000000000000600052601260045260246000fd5b600061345b826121de565b9150613466836121de565b92508261347657613475613421565b5b828204905092915050565b600061348c826121de565b9150613497836121de565b9250826134a7576134a6613421565b5b828206905092915050565b600081519050919050565b600082825260208201905092915050565b60006134d9826134b2565b6134e381856134bd565b93506134f381856020860161213f565b6134fc81612172565b840191505092915050565b600060808201905061351c6000830187612273565b6135296020830186612273565b613536604083018561235c565b818103606083015261354881846134ce565b905095945050505050565b60008151905061356281612094565b92915050565b60006020828403121561357e5761357d61205e565b5b600061358c84828501613553565b9150509291505056fea2646970667358221220746cd527f6ea52f6b4c0e6c3c7aaf1c9a12c34e6d873fadbb54e6ebe0691016c64736f6c634300080a0033",
  "immutableReferences": {},
  "source": "// SPDX-License-Identifier: MIT\npragma solidity ^0.8.4;\n\nimport \"./token/ERC721/ERC721.sol\";\nimport \"./access/Ownable.sol\";\n\n/**\n * PJT  -  2) NFT Creator \n *         .\n */\ncontract DonateNFT is ERC721, Ownable {\n    uint256 private _tokenIds;\n    mapping(uint256 => string) tokenURIs;\n    Tokens[] public tokens;\n\n    struct Tokens {\n        address owner;\n        uint256 tokenId;\n        string tokenURI;\n        uint256 donateAmmount;\n    }\n\n    constructor() ERC721(\"DonateNFT\", \"Donation\") {}\n\n    function current() public view returns (uint256) {\n        return _tokenIds;\n    }\n\n    function getTokenById(uint256 tokenId) public view returns (Tokens memory) {\n        return tokens[tokenId];\n    }\n\n    function create(\n        address owner,\n        string memory _tokenURI,\n        uint256 price\n    ) public returns (uint256) {\n        uint256 tokenId = tokens.length;\n        _mint(owner, tokenId);\n\n        tokens.push(Tokens(owner, tokenId, _tokenURI, price));\n\n        return tokenId;\n    }\n\n    function getTokensByWallet(address target)\n        public\n        view\n        returns (Tokens[] memory)\n    {\n        Tokens[] memory ret = new Tokens[](tokens.length);\n        uint256 j = 0;\n        for (uint256 i = 0; i < tokens.length; i++) {\n            if (tokens[i].owner == target) {\n                ret[j] = tokens[i];\n                j++;\n            }\n        }\n\n        return ret;\n    }\n}\n",
  "sourcePath": "D:\\SSAFY\\work_SSAFY\\PJT\\S06P22D109\\smart-contracts\\contracts\\DonateNFT.sol",
  "compiler": {
    "name": "solc",
    "version": "0.8.10+commit.fc410830.Emscripten.clang"
  },
  "schemaVersion": "3.4.3",
  "updatedAt": "2022-04-02T15:34:18.267Z",
  "devdoc": {
    "kind": "dev",
    "methods": {
      "approve(address,uint256)": {
        "details": "See {IERC721-approve}."
      },
      "balanceOf(address)": {
        "details": "See {IERC721-balanceOf}."
      },
      "getApproved(uint256)": {
        "details": "See {IERC721-getApproved}."
      },
      "isApprovedForAll(address,address)": {
        "details": "See {IERC721-isApprovedForAll}."
      },
      "name()": {
        "details": "See {IERC721Metadata-name}."
      },
      "owner()": {
        "details": "Returns the address of the current owner."
      },
      "ownerOf(uint256)": {
        "details": "See {IERC721-ownerOf}."
      },
      "renounceOwnership()": {
        "details": "Leaves the contract without owner. It will not be possible to call `onlyOwner` functions anymore. Can only be called by the current owner. NOTE: Renouncing ownership will leave the contract without an owner, thereby removing any functionality that is only available to the owner."
      },
      "safeTransferFrom(address,address,uint256)": {
        "details": "See {IERC721-safeTransferFrom}."
      },
      "safeTransferFrom(address,address,uint256,bytes)": {
        "details": "See {IERC721-safeTransferFrom}."
      },
      "setApprovalForAll(address,bool)": {
        "details": "See {IERC721-setApprovalForAll}."
      },
      "supportsInterface(bytes4)": {
        "details": "See {IERC165-supportsInterface}."
      },
      "symbol()": {
        "details": "See {IERC721Metadata-symbol}."
      },
      "tokenURI(uint256)": {
        "details": "See {IERC721Metadata-tokenURI}."
      },
      "transferFrom(address,address,uint256)": {
        "details": "See {IERC721-transferFrom}."
      },
      "transferOwnership(address)": {
        "details": "Transfers ownership of the contract to a new account (`newOwner`). Can only be called by the current owner."
      }
    },
    "version": 1
  },
  "userdoc": {
    "kind": "user",
    "methods": {},
    "notice": "PJT  -  2) NFT Creator          .",
    "version": 1
  }
}