{
  "contractName": "Market",
  "abi": [
    {
      "inputs": [],
      "stateMutability": "nonpayable",
      "type": "constructor"
    },
    {
      "anonymous": false,
      "inputs": [
        {
          "indexed": true,
          "internalType": "address",
          "name": "previousOwner",
          "type": "address"
        },
        {
          "indexed": true,
          "internalType": "address",
          "name": "newOwner",
          "type": "address"
        }
      ],
      "name": "OwnershipTransferred",
      "type": "event"
    },
    {
      "anonymous": false,
      "inputs": [
        {
          "indexed": true,
          "internalType": "address",
          "name": "sender",
          "type": "address"
        },
        {
          "indexed": true,
          "internalType": "address",
          "name": "receiver",
          "type": "address"
        },
        {
          "indexed": false,
          "internalType": "uint256",
          "name": "price",
          "type": "uint256"
        }
      ],
      "name": "SendEther",
      "type": "event"
    },
    {
      "inputs": [],
      "name": "NFTAddress",
      "outputs": [
        {
          "internalType": "address",
          "name": "",
          "type": "address"
        }
      ],
      "stateMutability": "view",
      "type": "function"
    },
    {
      "inputs": [],
      "name": "admin",
      "outputs": [
        {
          "internalType": "address",
          "name": "",
          "type": "address"
        }
      ],
      "stateMutability": "view",
      "type": "function"
    },
    {
      "inputs": [],
      "name": "myAddress",
      "outputs": [
        {
          "internalType": "address",
          "name": "",
          "type": "address"
        }
      ],
      "stateMutability": "view",
      "type": "function"
    },
    {
      "inputs": [],
      "name": "owner",
      "outputs": [
        {
          "internalType": "address",
          "name": "",
          "type": "address"
        }
      ],
      "stateMutability": "view",
      "type": "function"
    },
    {
      "inputs": [],
      "name": "renounceOwnership",
      "outputs": [],
      "stateMutability": "nonpayable",
      "type": "function"
    },
    {
      "inputs": [
        {
          "internalType": "uint256",
          "name": "",
          "type": "uint256"
        }
      ],
      "name": "sales",
      "outputs": [
        {
          "internalType": "address",
          "name": "seller",
          "type": "address"
        },
        {
          "internalType": "uint256",
          "name": "price",
          "type": "uint256"
        }
      ],
      "stateMutability": "view",
      "type": "function"
    },
    {
      "inputs": [
        {
          "internalType": "address",
          "name": "newOwner",
          "type": "address"
        }
      ],
      "name": "transferOwnership",
      "outputs": [],
      "stateMutability": "nonpayable",
      "type": "function"
    },
    {
      "inputs": [
        {
          "internalType": "address",
          "name": "_NFTAddress",
          "type": "address"
        }
      ],
      "name": "setNFTAddress",
      "outputs": [],
      "stateMutability": "nonpayable",
      "type": "function"
    },
    {
      "inputs": [
        {
          "internalType": "address",
          "name": "seller",
          "type": "address"
        },
        {
          "internalType": "uint256",
          "name": "tokenId",
          "type": "uint256"
        },
        {
          "internalType": "uint256",
          "name": "price",
          "type": "uint256"
        }
      ],
      "name": "newSale",
      "outputs": [],
      "stateMutability": "nonpayable",
      "type": "function"
    },
    {
      "inputs": [
        {
          "internalType": "uint256",
          "name": "tokenId",
          "type": "uint256"
        }
      ],
      "name": "deleteSale",
      "outputs": [],
      "stateMutability": "nonpayable",
      "type": "function"
    },
    {
      "inputs": [
        {
          "internalType": "uint256",
          "name": "tokenId",
          "type": "uint256"
        }
      ],
      "name": "getSales",
      "outputs": [
        {
          "components": [
            {
              "internalType": "address",
              "name": "seller",
              "type": "address"
            },
            {
              "internalType": "uint256",
              "name": "price",
              "type": "uint256"
            }
          ],
          "internalType": "struct Market.Sales",
          "name": "",
          "type": "tuple"
        }
      ],
      "stateMutability": "view",
      "type": "function"
    },
    {
      "inputs": [],
      "name": "getAdmin",
      "outputs": [
        {
          "internalType": "address",
          "name": "",
          "type": "address"
        }
      ],
      "stateMutability": "view",
      "type": "function"
    },
    {
      "inputs": [
        {
          "internalType": "uint256",
          "name": "tokenId",
          "type": "uint256"
        }
      ],
      "name": "trading",
      "outputs": [],
      "stateMutability": "payable",
      "type": "function"
    }
  ],
  "bytecode": "0x608060405234801561001057600080fd5b5061002d6100226100b460201b60201c565b6100bc60201b60201c565b33600160006101000a81548173ffffffffffffffffffffffffffffffffffffffff021916908373ffffffffffffffffffffffffffffffffffffffff16021790555030600360006101000a81548173ffffffffffffffffffffffffffffffffffffffff021916908373ffffffffffffffffffffffffffffffffffffffff160217905550610180565b600033905090565b60008060009054906101000a900473ffffffffffffffffffffffffffffffffffffffff169050816000806101000a81548173ffffffffffffffffffffffffffffffffffffffff021916908373ffffffffffffffffffffffffffffffffffffffff1602179055508173ffffffffffffffffffffffffffffffffffffffff168173ffffffffffffffffffffffffffffffffffffffff167f8be0079c531659141344cd1fd0a4f28419497f9722a3daafe3b4186f6b6457e060405160405180910390a35050565b610e1a8061018f6000396000f3fe6080604052600436106100c25760003560e01c80636f905b781161007f578063b5f522f711610059578063b5f522f714610235578063c9f0605514610273578063f2fde38b1461029c578063f851a440146102c5576100c2565b80636f905b78146101b6578063715018a6146101f35780638da5cb5b1461020a576100c2565b806326b85ee1146100c75780632e0c9ced146100f2578063310c87cc1461010e5780635b4cc2491461013957806369d03738146101625780636e9960c31461018b575b600080fd5b3480156100d357600080fd5b506100dc6102f0565b6040516100e99190610ab4565b60405180910390f35b61010c60048036038101906101079190610b0a565b610316565b005b34801561011a57600080fd5b506101236104d3565b6040516101309190610ab4565b60405180910390f35b34801561014557600080fd5b50610160600480360381019061015b9190610b63565b6104f9565b005b34801561016e57600080fd5b5061018960048036038101906101849190610bb6565b610621565b005b34801561019757600080fd5b506101a0610665565b6040516101ad9190610ab4565b60405180910390f35b3480156101c257600080fd5b506101dd60048036038101906101d89190610b0a565b61068f565b6040516101ea9190610c30565b60405180910390f35b3480156101ff57600080fd5b5061020861071c565b005b34801561021657600080fd5b5061021f6107a4565b60405161022c9190610ab4565b60405180910390f35b34801561024157600080fd5b5061025c60048036038101906102579190610b0a565b6107cd565b60405161026a929190610c5a565b60405180910390f35b34801561027f57600080fd5b5061029a60048036038101906102959190610b0a565b610811565b005b3480156102a857600080fd5b506102c360048036038101906102be9190610bb6565b610859565b005b3480156102d157600080fd5b506102da610951565b6040516102e79190610ab4565b60405180910390f35b600360009054906101000a900473ffffffffffffffffffffffffffffffffffffffff1681565b600033905060006004600084815260200190815260200160002060000160009054906101000a900473ffffffffffffffffffffffffffffffffffffffff16905060008190508173ffffffffffffffffffffffffffffffffffffffff168173ffffffffffffffffffffffffffffffffffffffff167f252b244cefdc24522fc84ee13ea3162cf8b8530956a0813769abe078fa30a32760046000888152602001908152602001600020600101546040516103ce9190610c83565b60405180910390a38073ffffffffffffffffffffffffffffffffffffffff166108fc60046000878152602001908152602001600020600101549081150290604051600060405180830381858888f19350505050158015610432573d6000803e3d6000fd5b50600260009054906101000a900473ffffffffffffffffffffffffffffffffffffffff1673ffffffffffffffffffffffffffffffffffffffff166323b872dd3085876040518463ffffffff1660e01b815260040161049293929190610c9e565b600060405180830381600087803b1580156104ac57600080fd5b505af11580156104c0573d6000803e3d6000fd5b505050506104cd84610811565b50505050565b600260009054906101000a900473ffffffffffffffffffffffffffffffffffffffff1681565b600260009054906101000a900473ffffffffffffffffffffffffffffffffffffffff1673ffffffffffffffffffffffffffffffffffffffff166323b872dd3330856040518463ffffffff1660e01b815260040161055893929190610c9e565b600060405180830381600087803b15801561057257600080fd5b505af1158015610586573d6000803e3d6000fd5b5050505060405180604001604052808473ffffffffffffffffffffffffffffffffffffffff168152602001828152506004600084815260200190815260200160002060008201518160000160006101000a81548173ffffffffffffffffffffffffffffffffffffffff021916908373ffffffffffffffffffffffffffffffffffffffff16021790555060208201518160010155905050505050565b80600260006101000a81548173ffffffffffffffffffffffffffffffffffffffff021916908373ffffffffffffffffffffffffffffffffffffffff16021790555050565b6000600160009054906101000a900473ffffffffffffffffffffffffffffffffffffffff16905090565b610697610a43565b600460008381526020019081526020016000206040518060400160405290816000820160009054906101000a900473ffffffffffffffffffffffffffffffffffffffff1673ffffffffffffffffffffffffffffffffffffffff1673ffffffffffffffffffffffffffffffffffffffff1681526020016001820154815250509050919050565b610724610977565b73ffffffffffffffffffffffffffffffffffffffff166107426107a4565b73ffffffffffffffffffffffffffffffffffffffff1614610798576040517f08c379a000000000000000000000000000000000000000000000000000000000815260040161078f90610d32565b60405180910390fd5b6107a2600061097f565b565b60008060009054906101000a900473ffffffffffffffffffffffffffffffffffffffff16905090565b60046020528060005260406000206000915090508060000160009054906101000a900473ffffffffffffffffffffffffffffffffffffffff16908060010154905082565b60046000828152602001908152602001600020600080820160006101000a81549073ffffffffffffffffffffffffffffffffffffffff02191690556001820160009055505050565b610861610977565b73ffffffffffffffffffffffffffffffffffffffff1661087f6107a4565b73ffffffffffffffffffffffffffffffffffffffff16146108d5576040517f08c379a00000000000000000000000000000000000000000000000000000000081526004016108cc90610d32565b60405180910390fd5b600073ffffffffffffffffffffffffffffffffffffffff168173ffffffffffffffffffffffffffffffffffffffff161415610945576040517f08c379a000000000000000000000000000000000000000000000000000000000815260040161093c90610dc4565b60405180910390fd5b61094e8161097f565b50565b600160009054906101000a900473ffffffffffffffffffffffffffffffffffffffff1681565b600033905090565b60008060009054906101000a900473ffffffffffffffffffffffffffffffffffffffff169050816000806101000a81548173ffffffffffffffffffffffffffffffffffffffff021916908373ffffffffffffffffffffffffffffffffffffffff1602179055508173ffffffffffffffffffffffffffffffffffffffff168173ffffffffffffffffffffffffffffffffffffffff167f8be0079c531659141344cd1fd0a4f28419497f9722a3daafe3b4186f6b6457e060405160405180910390a35050565b6040518060400160405280600073ffffffffffffffffffffffffffffffffffffffff168152602001600081525090565b600073ffffffffffffffffffffffffffffffffffffffff82169050919050565b6000610a9e82610a73565b9050919050565b610aae81610a93565b82525050565b6000602082019050610ac96000830184610aa5565b92915050565b600080fd5b6000819050919050565b610ae781610ad4565b8114610af257600080fd5b50565b600081359050610b0481610ade565b92915050565b600060208284031215610b2057610b1f610acf565b5b6000610b2e84828501610af5565b91505092915050565b610b4081610a93565b8114610b4b57600080fd5b50565b600081359050610b5d81610b37565b92915050565b600080600060608486031215610b7c57610b7b610acf565b5b6000610b8a86828701610b4e565b9350506020610b9b86828701610af5565b9250506040610bac86828701610af5565b9150509250925092565b600060208284031215610bcc57610bcb610acf565b5b6000610bda84828501610b4e565b91505092915050565b610bec81610a93565b82525050565b610bfb81610ad4565b82525050565b604082016000820151610c176000850182610be3565b506020820151610c2a6020850182610bf2565b50505050565b6000604082019050610c456000830184610c01565b92915050565b610c5481610ad4565b82525050565b6000604082019050610c6f6000830185610aa5565b610c7c6020830184610c4b565b9392505050565b6000602082019050610c986000830184610c4b565b92915050565b6000606082019050610cb36000830186610aa5565b610cc06020830185610aa5565b610ccd6040830184610c4b565b949350505050565b600082825260208201905092915050565b7f4f776e61626c653a2063616c6c6572206973206e6f7420746865206f776e6572600082015250565b6000610d1c602083610cd5565b9150610d2782610ce6565b602082019050919050565b60006020820190508181036000830152610d4b81610d0f565b9050919050565b7f4f776e61626c653a206e6577206f776e657220697320746865207a65726f206160008201527f6464726573730000000000000000000000000000000000000000000000000000602082015250565b6000610dae602683610cd5565b9150610db982610d52565b604082019050919050565b60006020820190508181036000830152610ddd81610da1565b905091905056fea2646970667358221220382f1c552d45fe8a9f1c9b361d76ecabdecbf8253ad75a8012f6b8ea161abd2564736f6c634300080a0033",
  "immutableReferences": {},
  "source": "// SPDX-License-Identifier: MIT\r\npragma solidity ^0.8.4;\r\n\r\nimport \"./access/Ownable.sol\";\r\nimport \"./token/ERC20/ERC20.sol\";\r\nimport \"./token/ERC721/ERC721.sol\";\r\nimport \"./DonateNFT.sol\";\r\n\r\ncontract Market is Ownable {\r\n    address public admin;\r\n    address public NFTAddress;\r\n    address public myAddress;\r\n    mapping(uint256 => Sales) public sales;\r\n\r\n    struct Sales {\r\n        address seller;\r\n        uint256 price;\r\n    }\r\n\r\n    event SendEther(\r\n        address indexed sender,\r\n        address indexed receiver,\r\n        uint256 price\r\n    );\r\n\r\n    constructor() {\r\n        admin = msg.sender;\r\n        myAddress = address(this);\r\n    }\r\n\r\n    function setNFTAddress(address _NFTAddress) public {\r\n        NFTAddress = _NFTAddress;\r\n    }\r\n\r\n    function newSale(\r\n        address seller,\r\n        uint256 tokenId,\r\n        uint256 price\r\n    ) public {\r\n        DonateNFT(NFTAddress).transferFrom(msg.sender, address(this), tokenId);\r\n        sales[tokenId] = Sales(seller, price);\r\n    }\r\n\r\n    function deleteSale(uint256 tokenId) public {\r\n        delete sales[tokenId];\r\n    }\r\n\r\n    function getSales(uint256 tokenId) public view returns (Sales memory) {\r\n        return sales[tokenId];\r\n    }\r\n\r\n    function getAdmin() public view returns (address) {\r\n        return admin;\r\n    }\r\n\r\n    function trading(uint256 tokenId) public payable {\r\n        address buyer = msg.sender;\r\n        address seller = sales[tokenId].seller;\r\n        address payable coinSend = payable(seller);\r\n        emit SendEther(coinSend, seller, sales[tokenId].price);\r\n        coinSend.transfer(sales[tokenId].price);\r\n\r\n        DonateNFT(NFTAddress).transferFrom(address(this), buyer, tokenId);\r\n\r\n        deleteSale(tokenId);\r\n    }\r\n}\r\n",
  "sourcePath": "D:\\SSAFY\\work_SSAFY\\PJT\\S06P22D109\\smart-contracts\\contracts\\Market.sol",
  "compiler": {
    "name": "solc",
    "version": "0.8.10+commit.fc410830.Emscripten.clang"
  },
  "schemaVersion": "3.4.3",
  "updatedAt": "2022-04-02T15:34:18.283Z",
  "devdoc": {
    "kind": "dev",
    "methods": {
      "owner()": {
        "details": "Returns the address of the current owner."
      },
      "renounceOwnership()": {
        "details": "Leaves the contract without owner. It will not be possible to call `onlyOwner` functions anymore. Can only be called by the current owner. NOTE: Renouncing ownership will leave the contract without an owner, thereby removing any functionality that is only available to the owner."
      },
      "transferOwnership(address)": {
        "details": "Transfers ownership of the contract to a new account (`newOwner`). Can only be called by the current owner."
      }
    },
    "version": 1
  },
  "userdoc": {
    "kind": "user",
    "methods": {},
    "version": 1
  }
}