{
  "contractName": "DonateNFT",
  "abi": [
    {
      "inputs": [],
      "stateMutability": "nonpayable",
      "type": "constructor"
    },
    {
      "anonymous": false,
      "inputs": [
        {
          "indexed": true,
          "internalType": "address",
          "name": "owner",
          "type": "address"
        },
        {
          "indexed": true,
          "internalType": "address",
          "name": "approved",
          "type": "address"
        },
        {
          "indexed": true,
          "internalType": "uint256",
          "name": "tokenId",
          "type": "uint256"
        }
      ],
      "name": "Approval",
      "type": "event"
    },
    {
      "anonymous": false,
      "inputs": [
        {
          "indexed": true,
          "internalType": "address",
          "name": "owner",
          "type": "address"
        },
        {
          "indexed": true,
          "internalType": "address",
          "name": "operator",
          "type": "address"
        },
        {
          "indexed": false,
          "internalType": "bool",
          "name": "approved",
          "type": "bool"
        }
      ],
      "name": "ApprovalForAll",
      "type": "event"
    },
    {
      "anonymous": false,
      "inputs": [
        {
          "indexed": true,
          "internalType": "address",
          "name": "previousOwner",
          "type": "address"
        },
        {
          "indexed": true,
          "internalType": "address",
          "name": "newOwner",
          "type": "address"
        }
      ],
      "name": "OwnershipTransferred",
      "type": "event"
    },
    {
      "anonymous": false,
      "inputs": [
        {
          "indexed": true,
          "internalType": "address",
          "name": "from",
          "type": "address"
        },
        {
          "indexed": true,
          "internalType": "address",
          "name": "to",
          "type": "address"
        },
        {
          "indexed": true,
          "internalType": "uint256",
          "name": "tokenId",
          "type": "uint256"
        }
      ],
      "name": "Transfer",
      "type": "event"
    },
    {
      "inputs": [],
      "name": "MarketAddress",
      "outputs": [
        {
          "internalType": "address",
          "name": "",
          "type": "address"
        }
      ],
      "stateMutability": "view",
      "type": "function"
    },
    {
      "inputs": [
        {
          "internalType": "address",
          "name": "to",
          "type": "address"
        },
        {
          "internalType": "uint256",
          "name": "tokenId",
          "type": "uint256"
        }
      ],
      "name": "approve",
      "outputs": [],
      "stateMutability": "nonpayable",
      "type": "function"
    },
    {
      "inputs": [
        {
          "internalType": "address",
          "name": "owner",
          "type": "address"
        }
      ],
      "name": "balanceOf",
      "outputs": [
        {
          "internalType": "uint256",
          "name": "",
          "type": "uint256"
        }
      ],
      "stateMutability": "view",
      "type": "function"
    },
    {
      "inputs": [
        {
          "internalType": "uint256",
          "name": "tokenId",
          "type": "uint256"
        }
      ],
      "name": "getApproved",
      "outputs": [
        {
          "internalType": "address",
          "name": "",
          "type": "address"
        }
      ],
      "stateMutability": "view",
      "type": "function"
    },
    {
      "inputs": [
        {
          "internalType": "address",
          "name": "owner",
          "type": "address"
        },
        {
          "internalType": "address",
          "name": "operator",
          "type": "address"
        }
      ],
      "name": "isApprovedForAll",
      "outputs": [
        {
          "internalType": "bool",
          "name": "",
          "type": "bool"
        }
      ],
      "stateMutability": "view",
      "type": "function"
    },
    {
      "inputs": [],
      "name": "name",
      "outputs": [
        {
          "internalType": "string",
          "name": "",
          "type": "string"
        }
      ],
      "stateMutability": "view",
      "type": "function"
    },
    {
      "inputs": [],
      "name": "owner",
      "outputs": [
        {
          "internalType": "address",
          "name": "",
          "type": "address"
        }
      ],
      "stateMutability": "view",
      "type": "function"
    },
    {
      "inputs": [
        {
          "internalType": "uint256",
          "name": "tokenId",
          "type": "uint256"
        }
      ],
      "name": "ownerOf",
      "outputs": [
        {
          "internalType": "address",
          "name": "",
          "type": "address"
        }
      ],
      "stateMutability": "view",
      "type": "function"
    },
    {
      "inputs": [],
      "name": "renounceOwnership",
      "outputs": [],
      "stateMutability": "nonpayable",
      "type": "function"
    },
    {
      "inputs": [
        {
          "internalType": "address",
          "name": "from",
          "type": "address"
        },
        {
          "internalType": "address",
          "name": "to",
          "type": "address"
        },
        {
          "internalType": "uint256",
          "name": "tokenId",
          "type": "uint256"
        }
      ],
      "name": "safeTransferFrom",
      "outputs": [],
      "stateMutability": "nonpayable",
      "type": "function"
    },
    {
      "inputs": [
        {
          "internalType": "address",
          "name": "from",
          "type": "address"
        },
        {
          "internalType": "address",
          "name": "to",
          "type": "address"
        },
        {
          "internalType": "uint256",
          "name": "tokenId",
          "type": "uint256"
        },
        {
          "internalType": "bytes",
          "name": "_data",
          "type": "bytes"
        }
      ],
      "name": "safeTransferFrom",
      "outputs": [],
      "stateMutability": "nonpayable",
      "type": "function"
    },
    {
      "inputs": [
        {
          "internalType": "address",
          "name": "operator",
          "type": "address"
        },
        {
          "internalType": "bool",
          "name": "approved",
          "type": "bool"
        }
      ],
      "name": "setApprovalForAll",
      "outputs": [],
      "stateMutability": "nonpayable",
      "type": "function"
    },
    {
      "inputs": [
        {
          "internalType": "bytes4",
          "name": "interfaceId",
          "type": "bytes4"
        }
      ],
      "name": "supportsInterface",
      "outputs": [
        {
          "internalType": "bool",
          "name": "",
          "type": "bool"
        }
      ],
      "stateMutability": "view",
      "type": "function"
    },
    {
      "inputs": [],
      "name": "symbol",
      "outputs": [
        {
          "internalType": "string",
          "name": "",
          "type": "string"
        }
      ],
      "stateMutability": "view",
      "type": "function"
    },
    {
      "inputs": [
        {
          "internalType": "uint256",
          "name": "tokenId",
          "type": "uint256"
        }
      ],
      "name": "tokenURI",
      "outputs": [
        {
          "internalType": "string",
          "name": "",
          "type": "string"
        }
      ],
      "stateMutability": "view",
      "type": "function"
    },
    {
      "inputs": [
        {
          "internalType": "uint256",
          "name": "",
          "type": "uint256"
        }
      ],
      "name": "tokens",
      "outputs": [
        {
          "internalType": "address",
          "name": "owner",
          "type": "address"
        },
        {
          "internalType": "string",
          "name": "assetName",
          "type": "string"
        },
        {
          "internalType": "string",
          "name": "assetDesc",
          "type": "string"
        },
        {
          "internalType": "uint256",
          "name": "tokenId",
          "type": "uint256"
        },
        {
          "internalType": "string",
          "name": "tokenURI",
          "type": "string"
        },
        {
          "internalType": "uint256",
          "name": "donateAmmount",
          "type": "uint256"
        }
      ],
      "stateMutability": "view",
      "type": "function"
    },
    {
      "inputs": [
        {
          "internalType": "address",
          "name": "from",
          "type": "address"
        },
        {
          "internalType": "address",
          "name": "to",
          "type": "address"
        },
        {
          "internalType": "uint256",
          "name": "tokenId",
          "type": "uint256"
        }
      ],
      "name": "transferFrom",
      "outputs": [],
      "stateMutability": "nonpayable",
      "type": "function"
    },
    {
      "inputs": [
        {
          "internalType": "address",
          "name": "newOwner",
          "type": "address"
        }
      ],
      "name": "transferOwnership",
      "outputs": [],
      "stateMutability": "nonpayable",
      "type": "function"
    },
    {
      "inputs": [
        {
          "internalType": "address",
          "name": "_MarketAddress",
          "type": "address"
        }
      ],
      "name": "setMarketAddress",
      "outputs": [],
      "stateMutability": "nonpayable",
      "type": "function"
    },
    {
      "inputs": [],
      "name": "getMarketAddress",
      "outputs": [
        {
          "internalType": "address",
          "name": "",
          "type": "address"
        }
      ],
      "stateMutability": "view",
      "type": "function"
    },
    {
      "inputs": [],
      "name": "current",
      "outputs": [
        {
          "internalType": "uint256",
          "name": "",
          "type": "uint256"
        }
      ],
      "stateMutability": "view",
      "type": "function"
    },
    {
      "inputs": [
        {
          "internalType": "uint256",
          "name": "tokenId",
          "type": "uint256"
        }
      ],
      "name": "getTokenById",
      "outputs": [
        {
          "components": [
            {
              "internalType": "address",
              "name": "owner",
              "type": "address"
            },
            {
              "internalType": "string",
              "name": "assetName",
              "type": "string"
            },
            {
              "internalType": "string",
              "name": "assetDesc",
              "type": "string"
            },
            {
              "internalType": "uint256",
              "name": "tokenId",
              "type": "uint256"
            },
            {
              "internalType": "string",
              "name": "tokenURI",
              "type": "string"
            },
            {
              "internalType": "uint256",
              "name": "donateAmmount",
              "type": "uint256"
            }
          ],
          "internalType": "struct DonateNFT.Tokens",
          "name": "",
          "type": "tuple"
        }
      ],
      "stateMutability": "view",
      "type": "function"
    },
    {
      "inputs": [
        {
          "internalType": "address",
          "name": "owner",
          "type": "address"
        },
        {
          "internalType": "string",
          "name": "assetName",
          "type": "string"
        },
        {
          "internalType": "string",
          "name": "assetDesc",
          "type": "string"
        },
        {
          "internalType": "string",
          "name": "_tokenURI",
          "type": "string"
        },
        {
          "internalType": "uint256",
          "name": "price",
          "type": "uint256"
        }
      ],
      "name": "create",
      "outputs": [
        {
          "components": [
            {
              "internalType": "address",
              "name": "owner",
              "type": "address"
            },
            {
              "internalType": "string",
              "name": "assetName",
              "type": "string"
            },
            {
              "internalType": "string",
              "name": "assetDesc",
              "type": "string"
            },
            {
              "internalType": "uint256",
              "name": "tokenId",
              "type": "uint256"
            },
            {
              "internalType": "string",
              "name": "tokenURI",
              "type": "string"
            },
            {
              "internalType": "uint256",
              "name": "donateAmmount",
              "type": "uint256"
            }
          ],
          "internalType": "struct DonateNFT.Tokens",
          "name": "",
          "type": "tuple"
        }
      ],
      "stateMutability": "nonpayable",
      "type": "function"
    },
    {
      "inputs": [
        {
          "internalType": "address",
          "name": "target",
          "type": "address"
        }
      ],
      "name": "getTokensByWallet",
      "outputs": [
        {
          "components": [
            {
              "internalType": "address",
              "name": "owner",
              "type": "address"
            },
            {
              "internalType": "string",
              "name": "assetName",
              "type": "string"
            },
            {
              "internalType": "string",
              "name": "assetDesc",
              "type": "string"
            },
            {
              "internalType": "uint256",
              "name": "tokenId",
              "type": "uint256"
            },
            {
              "internalType": "string",
              "name": "tokenURI",
              "type": "string"
            },
            {
              "internalType": "uint256",
              "name": "donateAmmount",
              "type": "uint256"
            }
          ],
          "internalType": "struct DonateNFT.Tokens[]",
          "name": "",
          "type": "tuple[]"
        }
      ],
      "stateMutability": "view",
      "type": "function"
    },
    {
      "inputs": [
        {
          "internalType": "uint256",
          "name": "tokenId",
          "type": "uint256"
        }
      ],
      "name": "newSale",
      "outputs": [
        {
          "internalType": "bool",
          "name": "",
          "type": "bool"
        }
      ],
      "stateMutability": "nonpayable",
      "type": "function"
    }
  ],
  "bytecode": "0x60806040523480156200001157600080fd5b506040518060400160405280600981526020017f446f6e6174654e465400000000000000000000000000000000000000000000008152506040518060400160405280600881526020017f446f6e6174696f6e000000000000000000000000000000000000000000000000815250816000908051906020019062000096929190620001a6565b508060019080519060200190620000af929190620001a6565b505050620000d2620000c6620000d860201b60201c565b620000e060201b60201c565b620002bb565b600033905090565b6000600660009054906101000a900473ffffffffffffffffffffffffffffffffffffffff16905081600660006101000a81548173ffffffffffffffffffffffffffffffffffffffff021916908373ffffffffffffffffffffffffffffffffffffffff1602179055508173ffffffffffffffffffffffffffffffffffffffff168173ffffffffffffffffffffffffffffffffffffffff167f8be0079c531659141344cd1fd0a4f28419497f9722a3daafe3b4186f6b6457e060405160405180910390a35050565b828054620001b49062000285565b90600052602060002090601f016020900481019282620001d8576000855562000224565b82601f10620001f357805160ff191683800117855562000224565b8280016001018555821562000224579182015b828111156200022357825182559160200191906001019062000206565b5b50905062000233919062000237565b5090565b5b808211156200025257600081600090555060010162000238565b5090565b7f4e487b7100000000000000000000000000000000000000000000000000000000600052602260045260246000fd5b600060028204905060018216806200029e57607f821691505b60208210811415620002b557620002b462000256565b5b50919050565b61402d80620002cb6000396000f3fe608060405234801561001057600080fd5b50600436106101735760003560e01c80637bdc60d9116100de578063c87b56dd11610097578063e985e9c511610071578063e985e9c514610489578063f2fde38b146104b9578063fae92612146104d5578063ffae9c50146104f157610173565b8063c87b56dd1461040b578063d3b90b301461043b578063e7334fe51461046b57610173565b80637bdc60d9146103495780638da5cb5b1461037957806395d89b41146103975780639fa6a6e3146103b5578063a22cb465146103d3578063b88d4fde146103ef57610173565b806330edb07c1161013057806330edb07c1461025e57806342842e0e1461028e5780634f64b2be146102aa5780636352211e146102df57806370a082311461030f578063715018a61461033f57610173565b806301ffc9a71461017857806306fdde03146101a8578063081812fc146101c6578063095ea7b3146101f65780631157022f1461021257806323b872dd14610242575b600080fd5b610192600480360381019061018d91906129c5565b61050f565b60405161019f9190612a0d565b60405180910390f35b6101b06105f1565b6040516101bd9190612ac1565b60405180910390f35b6101e060048036038101906101db9190612b19565b610683565b6040516101ed9190612b87565b60405180910390f35b610210600480360381019061020b9190612bce565b610708565b005b61022c60048036038101906102279190612d43565b610820565b6040516102399190612f11565b60405180910390f35b61025c60048036038101906102579190612f33565b610bd6565b005b61027860048036038101906102739190612b19565b610c36565b6040516102859190612a0d565b60405180910390f35b6102a860048036038101906102a39190612f33565b610d0c565b005b6102c460048036038101906102bf9190612b19565b610d2c565b6040516102d696959493929190612f95565b60405180910390f35b6102f960048036038101906102f49190612b19565b610f30565b6040516103069190612b87565b60405180910390f35b6103296004803603810190610324919061300b565b610fe2565b6040516103369190613038565b60405180910390f35b61034761109a565b005b610363600480360381019061035e9190612b19565b611122565b6040516103709190612f11565b60405180910390f35b61038161137e565b60405161038e9190612b87565b60405180910390f35b61039f6113a8565b6040516103ac9190612ac1565b60405180910390f35b6103bd61143a565b6040516103ca9190613038565b60405180910390f35b6103ed60048036038101906103e8919061307f565b611444565b005b61040960048036038101906104049190613160565b61145a565b005b61042560048036038101906104209190612b19565b6114bc565b6040516104329190612ac1565b60405180910390f35b6104556004803603810190610450919061300b565b6115be565b604051610462919061333c565b60405180910390f35b6104736119e8565b6040516104809190612b87565b60405180910390f35b6104a3600480360381019061049e919061335e565b611a12565b6040516104b09190612a0d565b60405180910390f35b6104d360048036038101906104ce919061300b565b611aa6565b005b6104ef60048036038101906104ea919061300b565b611b9e565b005b6104f9611be2565b6040516105069190612b87565b60405180910390f35b60007f80ac58cd000000000000000000000000000000000000000000000000000000007bffffffffffffffffffffffffffffffffffffffffffffffffffffffff1916827bffffffffffffffffffffffffffffffffffffffffffffffffffffffff191614806105da57507f5b5e139f000000000000000000000000000000000000000000000000000000007bffffffffffffffffffffffffffffffffffffffffffffffffffffffff1916827bffffffffffffffffffffffffffffffffffffffffffffffffffffffff1916145b806105ea57506105e982611c08565b5b9050919050565b606060008054610600906133cd565b80601f016020809104026020016040519081016040528092919081815260200182805461062c906133cd565b80156106795780601f1061064e57610100808354040283529160200191610679565b820191906000526020600020905b81548152906001019060200180831161065c57829003601f168201915b5050505050905090565b600061068e82611c72565b6106cd576040517f08c379a00000000000000000000000000000000000000000000000000000000081526004016106c490613471565b60405180910390fd5b6004600083815260200190815260200160002060009054906101000a900473ffffffffffffffffffffffffffffffffffffffff169050919050565b600061071382610f30565b90508073ffffffffffffffffffffffffffffffffffffffff168373ffffffffffffffffffffffffffffffffffffffff161415610784576040517f08c379a000000000000000000000000000000000000000000000000000000000815260040161077b90613503565b60405180910390fd5b8073ffffffffffffffffffffffffffffffffffffffff166107a3611cde565b73ffffffffffffffffffffffffffffffffffffffff1614806107d257506107d1816107cc611cde565b611a12565b5b610811576040517f08c379a000000000000000000000000000000000000000000000000000000000815260040161080890613595565b60405180910390fd5b61081b8383611ce6565b505050565b61082861286a565b61083486600754611d9f565b600a6040518060c001604052808873ffffffffffffffffffffffffffffffffffffffff168152602001878152602001868152602001600754815260200185815260200184815250908060018154018082558091505060019003906000526020600020906006020160009091909190915060008201518160000160006101000a81548173ffffffffffffffffffffffffffffffffffffffff021916908373ffffffffffffffffffffffffffffffffffffffff16021790555060208201518160010190805190602001906109079291906128b6565b5060408201518160020190805190602001906109249291906128b6565b5060608201518160030155608082015181600401908051906020019061094b9291906128b6565b5060a0820151816005015550506007600081548092919061096b906135e4565b9190505550600a6001600754610981919061362d565b8154811061099257610991613661565b5b90600052602060002090600602016040518060c00160405290816000820160009054906101000a900473ffffffffffffffffffffffffffffffffffffffff1673ffffffffffffffffffffffffffffffffffffffff1673ffffffffffffffffffffffffffffffffffffffff168152602001600182018054610a11906133cd565b80601f0160208091040260200160405190810160405280929190818152602001828054610a3d906133cd565b8015610a8a5780601f10610a5f57610100808354040283529160200191610a8a565b820191906000526020600020905b815481529060010190602001808311610a6d57829003601f168201915b50505050508152602001600282018054610aa3906133cd565b80601f0160208091040260200160405190810160405280929190818152602001828054610acf906133cd565b8015610b1c5780601f10610af157610100808354040283529160200191610b1c565b820191906000526020600020905b815481529060010190602001808311610aff57829003601f168201915b5050505050815260200160038201548152602001600482018054610b3f906133cd565b80601f0160208091040260200160405190810160405280929190818152602001828054610b6b906133cd565b8015610bb85780601f10610b8d57610100808354040283529160200191610bb8565b820191906000526020600020905b815481529060010190602001808311610b9b57829003601f168201915b50505050508152602001600582015481525050905095945050505050565b610be7610be1611cde565b82611f79565b610c26576040517f08c379a0000000000000000000000000000000000000000000000000000000008152600401610c1d90613702565b60405180910390fd5b610c31838383612057565b505050565b6000610c6533600860009054906101000a900473ffffffffffffffffffffffffffffffffffffffff1684610bd6565b600860009054906101000a900473ffffffffffffffffffffffffffffffffffffffff1673ffffffffffffffffffffffffffffffffffffffff1663180d3fbb33846040518363ffffffff1660e01b8152600401610cc2929190613722565b6020604051808303816000875af1158015610ce1573d6000803e3d6000fd5b505050506040513d601f19601f82011682018060405250810190610d059190613760565b9050919050565b610d278383836040518060200160405280600081525061145a565b505050565b600a8181548110610d3c57600080fd5b90600052602060002090600602016000915090508060000160009054906101000a900473ffffffffffffffffffffffffffffffffffffffff1690806001018054610d85906133cd565b80601f0160208091040260200160405190810160405280929190818152602001828054610db1906133cd565b8015610dfe5780601f10610dd357610100808354040283529160200191610dfe565b820191906000526020600020905b815481529060010190602001808311610de157829003601f168201915b505050505090806002018054610e13906133cd565b80601f0160208091040260200160405190810160405280929190818152602001828054610e3f906133cd565b8015610e8c5780601f10610e6157610100808354040283529160200191610e8c565b820191906000526020600020905b815481529060010190602001808311610e6f57829003601f168201915b505050505090806003015490806004018054610ea7906133cd565b80601f0160208091040260200160405190810160405280929190818152602001828054610ed3906133cd565b8015610f205780601f10610ef557610100808354040283529160200191610f20565b820191906000526020600020905b815481529060010190602001808311610f0357829003601f168201915b5050505050908060050154905086565b6000806002600084815260200190815260200160002060009054906101000a900473ffffffffffffffffffffffffffffffffffffffff169050600073ffffffffffffffffffffffffffffffffffffffff168173ffffffffffffffffffffffffffffffffffffffff161415610fd9576040517f08c379a0000000000000000000000000000000000000000000000000000000008152600401610fd0906137ff565b60405180910390fd5b80915050919050565b60008073ffffffffffffffffffffffffffffffffffffffff168273ffffffffffffffffffffffffffffffffffffffff161415611053576040517f08c379a000000000000000000000000000000000000000000000000000000000815260040161104a90613891565b60405180910390fd5b600360008373ffffffffffffffffffffffffffffffffffffffff1673ffffffffffffffffffffffffffffffffffffffff168152602001908152602001600020549050919050565b6110a2611cde565b73ffffffffffffffffffffffffffffffffffffffff166110c061137e565b73ffffffffffffffffffffffffffffffffffffffff1614611116576040517f08c379a000000000000000000000000000000000000000000000000000000000815260040161110d906138fd565b60405180910390fd5b61112060006122be565b565b61112a61286a565b600a828154811061113e5761113d613661565b5b90600052602060002090600602016040518060c00160405290816000820160009054906101000a900473ffffffffffffffffffffffffffffffffffffffff1673ffffffffffffffffffffffffffffffffffffffff1673ffffffffffffffffffffffffffffffffffffffff1681526020016001820180546111bd906133cd565b80601f01602080910402602001604051908101604052809291908181526020018280546111e9906133cd565b80156112365780601f1061120b57610100808354040283529160200191611236565b820191906000526020600020905b81548152906001019060200180831161121957829003601f168201915b5050505050815260200160028201805461124f906133cd565b80601f016020809104026020016040519081016040528092919081815260200182805461127b906133cd565b80156112c85780601f1061129d576101008083540402835291602001916112c8565b820191906000526020600020905b8154815290600101906020018083116112ab57829003601f168201915b50505050508152602001600382015481526020016004820180546112eb906133cd565b80601f0160208091040260200160405190810160405280929190818152602001828054611317906133cd565b80156113645780601f1061133957610100808354040283529160200191611364565b820191906000526020600020905b81548152906001019060200180831161134757829003601f168201915b505050505081526020016005820154815250509050919050565b6000600660009054906101000a900473ffffffffffffffffffffffffffffffffffffffff16905090565b6060600180546113b7906133cd565b80601f01602080910402602001604051908101604052809291908181526020018280546113e3906133cd565b80156114305780601f1061140557610100808354040283529160200191611430565b820191906000526020600020905b81548152906001019060200180831161141357829003601f168201915b5050505050905090565b6000600754905090565b61145661144f611cde565b8383612384565b5050565b61146b611465611cde565b83611f79565b6114aa576040517f08c379a00000000000000000000000000000000000000000000000000000000081526004016114a190613702565b60405180910390fd5b6114b6848484846124f1565b50505050565b6060600073ffffffffffffffffffffffffffffffffffffffff166002600084815260200190815260200160002060009054906101000a900473ffffffffffffffffffffffffffffffffffffffff1673ffffffffffffffffffffffffffffffffffffffff161415611561576040517f08c379a00000000000000000000000000000000000000000000000000000000081526004016115589061398f565b60405180910390fd5b600061156b61254d565b9050600081511161158b57604051806020016040528060008152506115b6565b8061159584612564565b6040516020016115a69291906139eb565b6040516020818303038152906040525b915050919050565b60606000805b600a8054905081101561166c578373ffffffffffffffffffffffffffffffffffffffff16600a82815481106115fc576115fb613661565b5b906000526020600020906006020160000160009054906101000a900473ffffffffffffffffffffffffffffffffffffffff1673ffffffffffffffffffffffffffffffffffffffff161415611659578180611655906135e4565b9250505b8080611664906135e4565b9150506115c4565b5060008167ffffffffffffffff81111561168957611688612c18565b5b6040519080825280602002602001820160405280156116c257816020015b6116af61286a565b8152602001906001900390816116a75790505b5090506000805b600a805490508110156119dc578573ffffffffffffffffffffffffffffffffffffffff16600a828154811061170157611700613661565b5b906000526020600020906006020160000160009054906101000a900473ffffffffffffffffffffffffffffffffffffffff1673ffffffffffffffffffffffffffffffffffffffff1614156119c957600a818154811061176357611762613661565b5b90600052602060002090600602016040518060c00160405290816000820160009054906101000a900473ffffffffffffffffffffffffffffffffffffffff1673ffffffffffffffffffffffffffffffffffffffff1673ffffffffffffffffffffffffffffffffffffffff1681526020016001820180546117e2906133cd565b80601f016020809104026020016040519081016040528092919081815260200182805461180e906133cd565b801561185b5780601f106118305761010080835404028352916020019161185b565b820191906000526020600020905b81548152906001019060200180831161183e57829003601f168201915b50505050508152602001600282018054611874906133cd565b80601f01602080910402602001604051908101604052809291908181526020018280546118a0906133cd565b80156118ed5780601f106118c2576101008083540402835291602001916118ed565b820191906000526020600020905b8154815290600101906020018083116118d057829003601f168201915b5050505050815260200160038201548152602001600482018054611910906133cd565b80601f016020809104026020016040519081016040528092919081815260200182805461193c906133cd565b80156119895780601f1061195e57610100808354040283529160200191611989565b820191906000526020600020905b81548152906001019060200180831161196c57829003601f168201915b505050505081526020016005820154815250508383815181106119af576119ae613661565b5b602002602001018190525081806119c5906135e4565b9250505b80806119d4906135e4565b9150506116c9565b50819350505050919050565b6000600860009054906101000a900473ffffffffffffffffffffffffffffffffffffffff16905090565b6000600560008473ffffffffffffffffffffffffffffffffffffffff1673ffffffffffffffffffffffffffffffffffffffff16815260200190815260200160002060008373ffffffffffffffffffffffffffffffffffffffff1673ffffffffffffffffffffffffffffffffffffffff16815260200190815260200160002060009054906101000a900460ff16905092915050565b611aae611cde565b73ffffffffffffffffffffffffffffffffffffffff16611acc61137e565b73ffffffffffffffffffffffffffffffffffffffff1614611b22576040517f08c379a0000000000000000000000000000000000000000000000000000000008152600401611b19906138fd565b60405180910390fd5b600073ffffffffffffffffffffffffffffffffffffffff168173ffffffffffffffffffffffffffffffffffffffff161415611b92576040517f08c379a0000000000000000000000000000000000000000000000000000000008152600401611b8990613a81565b60405180910390fd5b611b9b816122be565b50565b80600860006101000a81548173ffffffffffffffffffffffffffffffffffffffff021916908373ffffffffffffffffffffffffffffffffffffffff16021790555050565b600860009054906101000a900473ffffffffffffffffffffffffffffffffffffffff1681565b60007f01ffc9a7000000000000000000000000000000000000000000000000000000007bffffffffffffffffffffffffffffffffffffffffffffffffffffffff1916827bffffffffffffffffffffffffffffffffffffffffffffffffffffffff1916149050919050565b60008073ffffffffffffffffffffffffffffffffffffffff166002600084815260200190815260200160002060009054906101000a900473ffffffffffffffffffffffffffffffffffffffff1673ffffffffffffffffffffffffffffffffffffffff1614159050919050565b600033905090565b816004600083815260200190815260200160002060006101000a81548173ffffffffffffffffffffffffffffffffffffffff021916908373ffffffffffffffffffffffffffffffffffffffff160217905550808273ffffffffffffffffffffffffffffffffffffffff16611d5983610f30565b73ffffffffffffffffffffffffffffffffffffffff167f8c5be1e5ebec7d5bd14f71427d1e84f3dd0314c0f7b2291e5b200ac8c7c3b92560405160405180910390a45050565b600073ffffffffffffffffffffffffffffffffffffffff168273ffffffffffffffffffffffffffffffffffffffff161415611e0f576040517f08c379a0000000000000000000000000000000000000000000000000000000008152600401611e0690613aed565b60405180910390fd5b611e1881611c72565b15611e58576040517f08c379a0000000000000000000000000000000000000000000000000000000008152600401611e4f90613b59565b60405180910390fd5b611e64600083836126c5565b6001600360008473ffffffffffffffffffffffffffffffffffffffff1673ffffffffffffffffffffffffffffffffffffffff1681526020019081526020016000206000828254611eb49190613b79565b92505081905550816002600083815260200190815260200160002060006101000a81548173ffffffffffffffffffffffffffffffffffffffff021916908373ffffffffffffffffffffffffffffffffffffffff160217905550808273ffffffffffffffffffffffffffffffffffffffff16600073ffffffffffffffffffffffffffffffffffffffff167fddf252ad1be2c89b69c2b068fc378daa952ba7f163c4a11628f55a4df523b3ef60405160405180910390a4611f75600083836126ca565b5050565b6000611f8482611c72565b611fc3576040517f08c379a0000000000000000000000000000000000000000000000000000000008152600401611fba90613c41565b60405180910390fd5b6000611fce83610f30565b90508073ffffffffffffffffffffffffffffffffffffffff168473ffffffffffffffffffffffffffffffffffffffff161480612010575061200f8185611a12565b5b8061204e57508373ffffffffffffffffffffffffffffffffffffffff1661203684610683565b73ffffffffffffffffffffffffffffffffffffffff16145b91505092915050565b8273ffffffffffffffffffffffffffffffffffffffff1661207782610f30565b73ffffffffffffffffffffffffffffffffffffffff16146120cd576040517f08c379a00000000000000000000000000000000000000000000000000000000081526004016120c490613cd3565b60405180910390fd5b600073ffffffffffffffffffffffffffffffffffffffff168273ffffffffffffffffffffffffffffffffffffffff16141561213d576040517f08c379a000000000000000000000000000000000000000000000000000000000815260040161213490613d65565b60405180910390fd5b6121488383836126c5565b612153600082611ce6565b6001600360008573ffffffffffffffffffffffffffffffffffffffff1673ffffffffffffffffffffffffffffffffffffffff16815260200190815260200160002060008282546121a3919061362d565b925050819055506001600360008473ffffffffffffffffffffffffffffffffffffffff1673ffffffffffffffffffffffffffffffffffffffff16815260200190815260200160002060008282546121fa9190613b79565b92505081905550816002600083815260200190815260200160002060006101000a81548173ffffffffffffffffffffffffffffffffffffffff021916908373ffffffffffffffffffffffffffffffffffffffff160217905550808273ffffffffffffffffffffffffffffffffffffffff168473ffffffffffffffffffffffffffffffffffffffff167fddf252ad1be2c89b69c2b068fc378daa952ba7f163c4a11628f55a4df523b3ef60405160405180910390a46122b98383836126ca565b505050565b6000600660009054906101000a900473ffffffffffffffffffffffffffffffffffffffff16905081600660006101000a81548173ffffffffffffffffffffffffffffffffffffffff021916908373ffffffffffffffffffffffffffffffffffffffff1602179055508173ffffffffffffffffffffffffffffffffffffffff168173ffffffffffffffffffffffffffffffffffffffff167f8be0079c531659141344cd1fd0a4f28419497f9722a3daafe3b4186f6b6457e060405160405180910390a35050565b8173ffffffffffffffffffffffffffffffffffffffff168373ffffffffffffffffffffffffffffffffffffffff1614156123f3576040517f08c379a00000000000000000000000000000000000000000000000000000000081526004016123ea90613dd1565b60405180910390fd5b80600560008573ffffffffffffffffffffffffffffffffffffffff1673ffffffffffffffffffffffffffffffffffffffff16815260200190815260200160002060008473ffffffffffffffffffffffffffffffffffffffff1673ffffffffffffffffffffffffffffffffffffffff16815260200190815260200160002060006101000a81548160ff0219169083151502179055508173ffffffffffffffffffffffffffffffffffffffff168373ffffffffffffffffffffffffffffffffffffffff167f17307eab39ab6107e8899845ad3d59bd9653f200f220920489ca2b5937696c31836040516124e49190612a0d565b60405180910390a3505050565b6124fc848484612057565b612508848484846126cf565b612547576040517f08c379a000000000000000000000000000000000000000000000000000000000815260040161253e90613e63565b60405180910390fd5b50505050565b606060405180602001604052806000815250905090565b606060008214156125ac576040518060400160405280600181526020017f300000000000000000000000000000000000000000000000000000000000000081525090506126c0565b600082905060005b600082146125de5780806125c7906135e4565b915050600a826125d79190613eb2565b91506125b4565b60008167ffffffffffffffff8111156125fa576125f9612c18565b5b6040519080825280601f01601f19166020018201604052801561262c5781602001600182028036833780820191505090505b5090505b600085146126b957600182612645919061362d565b9150600a856126549190613ee3565b60306126609190613b79565b60f81b81838151811061267657612675613661565b5b60200101907effffffffffffffffffffffffffffffffffffffffffffffffffffffffffffff1916908160001a905350600a856126b29190613eb2565b9450612630565b8093505050505b919050565b505050565b505050565b60006126f08473ffffffffffffffffffffffffffffffffffffffff16612857565b1561284a578373ffffffffffffffffffffffffffffffffffffffff1663150b7a02612719611cde565b8786866040518563ffffffff1660e01b815260040161273b9493929190613f69565b6020604051808303816000875af192505050801561277757506040513d601f19601f820116820180604052508101906127749190613fca565b60015b6127fa573d80600081146127a7576040519150601f19603f3d011682016040523d82523d6000602084013e6127ac565b606091505b506000815114156127f2576040517f08c379a00000000000000000000000000000000000000000000000000000000081526004016127e990613e63565b60405180910390fd5b805181602001fd5b63150b7a0260e01b7bffffffffffffffffffffffffffffffffffffffffffffffffffffffff1916817bffffffffffffffffffffffffffffffffffffffffffffffffffffffff19161491505061284f565b600190505b949350505050565b600080823b905060008111915050919050565b6040518060c00160405280600073ffffffffffffffffffffffffffffffffffffffff16815260200160608152602001606081526020016000815260200160608152602001600081525090565b8280546128c2906133cd565b90600052602060002090601f0160209004810192826128e4576000855561292b565b82601f106128fd57805160ff191683800117855561292b565b8280016001018555821561292b579182015b8281111561292a57825182559160200191906001019061290f565b5b509050612938919061293c565b5090565b5b8082111561295557600081600090555060010161293d565b5090565b6000604051905090565b600080fd5b600080fd5b60007fffffffff0000000000000000000000000000000000000000000000000000000082169050919050565b6129a28161296d565b81146129ad57600080fd5b50565b6000813590506129bf81612999565b92915050565b6000602082840312156129db576129da612963565b5b60006129e9848285016129b0565b91505092915050565b60008115159050919050565b612a07816129f2565b82525050565b6000602082019050612a2260008301846129fe565b92915050565b600081519050919050565b600082825260208201905092915050565b60005b83811015612a62578082015181840152602081019050612a47565b83811115612a71576000848401525b50505050565b6000601f19601f8301169050919050565b6000612a9382612a28565b612a9d8185612a33565b9350612aad818560208601612a44565b612ab681612a77565b840191505092915050565b60006020820190508181036000830152612adb8184612a88565b905092915050565b6000819050919050565b612af681612ae3565b8114612b0157600080fd5b50565b600081359050612b1381612aed565b92915050565b600060208284031215612b2f57612b2e612963565b5b6000612b3d84828501612b04565b91505092915050565b600073ffffffffffffffffffffffffffffffffffffffff82169050919050565b6000612b7182612b46565b9050919050565b612b8181612b66565b82525050565b6000602082019050612b9c6000830184612b78565b92915050565b612bab81612b66565b8114612bb657600080fd5b50565b600081359050612bc881612ba2565b92915050565b60008060408385031215612be557612be4612963565b5b6000612bf385828601612bb9565b9250506020612c0485828601612b04565b9150509250929050565b600080fd5b600080fd5b7f4e487b7100000000000000000000000000000000000000000000000000000000600052604160045260246000fd5b612c5082612a77565b810181811067ffffffffffffffff82111715612c6f57612c6e612c18565b5b80604052505050565b6000612c82612959565b9050612c8e8282612c47565b919050565b600067ffffffffffffffff821115612cae57612cad612c18565b5b612cb782612a77565b9050602081019050919050565b82818337600083830152505050565b6000612ce6612ce184612c93565b612c78565b905082815260208101848484011115612d0257612d01612c13565b5b612d0d848285612cc4565b509392505050565b600082601f830112612d2a57612d29612c0e565b5b8135612d3a848260208601612cd3565b91505092915050565b600080600080600060a08688031215612d5f57612d5e612963565b5b6000612d6d88828901612bb9565b955050602086013567ffffffffffffffff811115612d8e57612d8d612968565b5b612d9a88828901612d15565b945050604086013567ffffffffffffffff811115612dbb57612dba612968565b5b612dc788828901612d15565b935050606086013567ffffffffffffffff811115612de857612de7612968565b5b612df488828901612d15565b9250506080612e0588828901612b04565b9150509295509295909350565b612e1b81612b66565b82525050565b600082825260208201905092915050565b6000612e3d82612a28565b612e478185612e21565b9350612e57818560208601612a44565b612e6081612a77565b840191505092915050565b612e7481612ae3565b82525050565b600060c083016000830151612e926000860182612e12565b5060208301518482036020860152612eaa8282612e32565b91505060408301518482036040860152612ec48282612e32565b9150506060830151612ed96060860182612e6b565b5060808301518482036080860152612ef18282612e32565b91505060a0830151612f0660a0860182612e6b565b508091505092915050565b60006020820190508181036000830152612f2b8184612e7a565b905092915050565b600080600060608486031215612f4c57612f4b612963565b5b6000612f5a86828701612bb9565b9350506020612f6b86828701612bb9565b9250506040612f7c86828701612b04565b9150509250925092565b612f8f81612ae3565b82525050565b600060c082019050612faa6000830189612b78565b8181036020830152612fbc8188612a88565b90508181036040830152612fd08187612a88565b9050612fdf6060830186612f86565b8181036080830152612ff18185612a88565b905061300060a0830184612f86565b979650505050505050565b60006020828403121561302157613020612963565b5b600061302f84828501612bb9565b91505092915050565b600060208201905061304d6000830184612f86565b92915050565b61305c816129f2565b811461306757600080fd5b50565b60008135905061307981613053565b92915050565b6000806040838503121561309657613095612963565b5b60006130a485828601612bb9565b92505060206130b58582860161306a565b9150509250929050565b600067ffffffffffffffff8211156130da576130d9612c18565b5b6130e382612a77565b9050602081019050919050565b60006131036130fe846130bf565b612c78565b90508281526020810184848401111561311f5761311e612c13565b5b61312a848285612cc4565b509392505050565b600082601f83011261314757613146612c0e565b5b81356131578482602086016130f0565b91505092915050565b6000806000806080858703121561317a57613179612963565b5b600061318887828801612bb9565b945050602061319987828801612bb9565b93505060406131aa87828801612b04565b925050606085013567ffffffffffffffff8111156131cb576131ca612968565b5b6131d787828801613132565b91505092959194509250565b600081519050919050565b600082825260208201905092915050565b6000819050602082019050919050565b600060c0830160008301516132276000860182612e12565b506020830151848203602086015261323f8282612e32565b915050604083015184820360408601526132598282612e32565b915050606083015161326e6060860182612e6b565b50608083015184820360808601526132868282612e32565b91505060a083015161329b60a0860182612e6b565b508091505092915050565b60006132b2838361320f565b905092915050565b6000602082019050919050565b60006132d2826131e3565b6132dc81856131ee565b9350836020820285016132ee856131ff565b8060005b8581101561332a578484038952815161330b85826132a6565b9450613316836132ba565b925060208a019950506001810190506132f2565b50829750879550505050505092915050565b6000602082019050818103600083015261335681846132c7565b905092915050565b6000806040838503121561337557613374612963565b5b600061338385828601612bb9565b925050602061339485828601612bb9565b9150509250929050565b7f4e487b7100000000000000000000000000000000000000000000000000000000600052602260045260246000fd5b600060028204905060018216806133e557607f821691505b602082108114156133f9576133f861339e565b5b50919050565b7f4552433732313a20617070726f76656420717565727920666f72206e6f6e657860008201527f697374656e7420746f6b656e0000000000000000000000000000000000000000602082015250565b600061345b602c83612a33565b9150613466826133ff565b604082019050919050565b6000602082019050818103600083015261348a8161344e565b9050919050565b7f4552433732313a20617070726f76616c20746f2063757272656e74206f776e6560008201527f7200000000000000000000000000000000000000000000000000000000000000602082015250565b60006134ed602183612a33565b91506134f882613491565b604082019050919050565b6000602082019050818103600083015261351c816134e0565b9050919050565b7f4552433732313a20617070726f76652063616c6c6572206973206e6f74206f7760008201527f6e6572206e6f7220617070726f76656420666f7220616c6c0000000000000000602082015250565b600061357f603883612a33565b915061358a82613523565b604082019050919050565b600060208201905081810360008301526135ae81613572565b9050919050565b7f4e487b7100000000000000000000000000000000000000000000000000000000600052601160045260246000fd5b60006135ef82612ae3565b91507fffffffffffffffffffffffffffffffffffffffffffffffffffffffffffffffff821415613622576136216135b5565b5b600182019050919050565b600061363882612ae3565b915061364383612ae3565b925082821015613656576136556135b5565b5b828203905092915050565b7f4e487b7100000000000000000000000000000000000000000000000000000000600052603260045260246000fd5b7f4552433732313a207472616e736665722063616c6c6572206973206e6f74206f60008201527f776e6572206e6f7220617070726f766564000000000000000000000000000000602082015250565b60006136ec603183612a33565b91506136f782613690565b604082019050919050565b6000602082019050818103600083015261371b816136df565b9050919050565b60006040820190506137376000830185612b78565b6137446020830184612f86565b9392505050565b60008151905061375a81613053565b92915050565b60006020828403121561377657613775612963565b5b60006137848482850161374b565b91505092915050565b7f4552433732313a206f776e657220717565727920666f72206e6f6e657869737460008201527f656e7420746f6b656e0000000000000000000000000000000000000000000000602082015250565b60006137e9602983612a33565b91506137f48261378d565b604082019050919050565b60006020820190508181036000830152613818816137dc565b9050919050565b7f4552433732313a2062616c616e636520717565727920666f7220746865207a6560008201527f726f206164647265737300000000000000000000000000000000000000000000602082015250565b600061387b602a83612a33565b91506138868261381f565b604082019050919050565b600060208201905081810360008301526138aa8161386e565b9050919050565b7f4f776e61626c653a2063616c6c6572206973206e6f7420746865206f776e6572600082015250565b60006138e7602083612a33565b91506138f2826138b1565b602082019050919050565b60006020820190508181036000830152613916816138da565b9050919050565b7f4552433732314d657461646174613a2055524920717565727920666f72206e6f60008201527f6e6578697374656e7420746f6b656e0000000000000000000000000000000000602082015250565b6000613979602f83612a33565b91506139848261391d565b604082019050919050565b600060208201905081810360008301526139a88161396c565b9050919050565b600081905092915050565b60006139c582612a28565b6139cf81856139af565b93506139df818560208601612a44565b80840191505092915050565b60006139f782856139ba565b9150613a0382846139ba565b91508190509392505050565b7f4f776e61626c653a206e6577206f776e657220697320746865207a65726f206160008201527f6464726573730000000000000000000000000000000000000000000000000000602082015250565b6000613a6b602683612a33565b9150613a7682613a0f565b604082019050919050565b60006020820190508181036000830152613a9a81613a5e565b9050919050565b7f4552433732313a206d696e7420746f20746865207a65726f2061646472657373600082015250565b6000613ad7602083612a33565b9150613ae282613aa1565b602082019050919050565b60006020820190508181036000830152613b0681613aca565b9050919050565b7f4552433732313a20746f6b656e20616c7265616479206d696e74656400000000600082015250565b6000613b43601c83612a33565b9150613b4e82613b0d565b602082019050919050565b60006020820190508181036000830152613b7281613b36565b9050919050565b6000613b8482612ae3565b9150613b8f83612ae3565b9250827fffffffffffffffffffffffffffffffffffffffffffffffffffffffffffffffff03821115613bc457613bc36135b5565b5b828201905092915050565b7f4552433732313a206f70657261746f7220717565727920666f72206e6f6e657860008201527f697374656e7420746f6b656e0000000000000000000000000000000000000000602082015250565b6000613c2b602c83612a33565b9150613c3682613bcf565b604082019050919050565b60006020820190508181036000830152613c5a81613c1e565b9050919050565b7f4552433732313a207472616e736665722066726f6d20696e636f72726563742060008201527f6f776e6572000000000000000000000000000000000000000000000000000000602082015250565b6000613cbd602583612a33565b9150613cc882613c61565b604082019050919050565b60006020820190508181036000830152613cec81613cb0565b9050919050565b7f4552433732313a207472616e7366657220746f20746865207a65726f2061646460008201527f7265737300000000000000000000000000000000000000000000000000000000602082015250565b6000613d4f602483612a33565b9150613d5a82613cf3565b604082019050919050565b60006020820190508181036000830152613d7e81613d42565b9050919050565b7f4552433732313a20617070726f766520746f2063616c6c657200000000000000600082015250565b6000613dbb601983612a33565b9150613dc682613d85565b602082019050919050565b60006020820190508181036000830152613dea81613dae565b9050919050565b7f4552433732313a207472616e7366657220746f206e6f6e20455243373231526560008201527f63656976657220696d706c656d656e7465720000000000000000000000000000602082015250565b6000613e4d603283612a33565b9150613e5882613df1565b604082019050919050565b60006020820190508181036000830152613e7c81613e40565b9050919050565b7f4e487b7100000000000000000000000000000000000000000000000000000000600052601260045260246000fd5b6000613ebd82612ae3565b9150613ec883612ae3565b925082613ed857613ed7613e83565b5b828204905092915050565b6000613eee82612ae3565b9150613ef983612ae3565b925082613f0957613f08613e83565b5b828206905092915050565b600081519050919050565b600082825260208201905092915050565b6000613f3b82613f14565b613f458185613f1f565b9350613f55818560208601612a44565b613f5e81612a77565b840191505092915050565b6000608082019050613f7e6000830187612b78565b613f8b6020830186612b78565b613f986040830185612f86565b8181036060830152613faa8184613f30565b905095945050505050565b600081519050613fc481612999565b92915050565b600060208284031215613fe057613fdf612963565b5b6000613fee84828501613fb5565b9150509291505056fea26469706673582212205632cba6b6d43f8db41504fbaf733aeb500fea6bcfbfe5fa0dceb936060e053164736f6c634300080a0033",
  "immutableReferences": {},
  "source": "// SPDX-License-Identifier: MIT\npragma solidity ^0.8.4;\n\nimport \"./token/ERC721/ERC721.sol\";\nimport \"./access/Ownable.sol\";\nimport \"./Market.sol\";\n\ncontract DonateNFT is ERC721, Ownable {\n    uint256 private _tokenIds;\n    address public MarketAddress;\n    mapping(uint256 => string) tokenURIs;\n    Tokens[] public tokens;\n\n    struct Tokens {\n        address owner;\n        string assetName;\n        string assetDesc;\n        uint256 tokenId;\n        string tokenURI;\n        uint256 donateAmmount;\n    }\n\n    constructor() ERC721(\"DonateNFT\", \"Donation\") {}\n\n    function setMarketAddress(address _MarketAddress) public {\n        MarketAddress = _MarketAddress;\n    }\n\n    function getMarketAddress() public view returns (address) {\n        return MarketAddress;\n    }\n\n    function current() public view returns (uint256) {\n        return _tokenIds;\n    }\n\n    function getTokenById(uint256 tokenId) public view returns (Tokens memory) {\n        return tokens[tokenId];\n    }\n\n    function create(\n        address owner,\n        string memory assetName,\n        string memory assetDesc,\n        string memory _tokenURI,\n        uint256 price\n    ) public returns (Tokens memory) {\n        _mint(owner, _tokenIds);\n\n        tokens.push(\n            Tokens(owner, assetName, assetDesc, _tokenIds, _tokenURI, price)\n        );\n        _tokenIds++;\n\n        return tokens[_tokenIds - 1];\n    }\n\n    function getTokensByWallet(address target)\n        public\n        view\n        returns (Tokens[] memory)\n    {\n        uint256 nowLength = 0;\n\n        for (uint256 i = 0; i < tokens.length; i++) {\n            if (tokens[i].owner == target) {\n                nowLength++;\n            }\n        }\n\n        Tokens[] memory ret = new Tokens[](nowLength);\n        uint256 j = 0;\n        for (uint256 i = 0; i < tokens.length; i++) {\n            if (tokens[i].owner == target) {\n                ret[j] = tokens[i];\n                j++;\n            }\n        }\n\n        return ret;\n    }\n\n    function newSale(uint256 tokenId) public returns (bool) {\n        transferFrom(msg.sender, MarketAddress, tokenId);\n        return Market(MarketAddress).newSale(msg.sender, tokenId);\n    }\n}\n",
  "sourcePath": "D:\\SSAFY\\work_SSAFY\\PJT\\S06P22D109\\smart-contracts\\contracts\\DonateNFT.sol",
  "compiler": {
    "name": "solc",
    "version": "0.8.10+commit.fc410830.Emscripten.clang"
  },
  "schemaVersion": "3.4.3",
  "updatedAt": "2022-04-06T01:37:04.960Z",
  "networkType": "ethereum",
  "devdoc": {
    "kind": "dev",
    "methods": {
      "approve(address,uint256)": {
        "details": "See {IERC721-approve}."
      },
      "balanceOf(address)": {
        "details": "See {IERC721-balanceOf}."
      },
      "getApproved(uint256)": {
        "details": "See {IERC721-getApproved}."
      },
      "isApprovedForAll(address,address)": {
        "details": "See {IERC721-isApprovedForAll}."
      },
      "name()": {
        "details": "See {IERC721Metadata-name}."
      },
      "owner()": {
        "details": "Returns the address of the current owner."
      },
      "ownerOf(uint256)": {
        "details": "See {IERC721-ownerOf}."
      },
      "renounceOwnership()": {
        "details": "Leaves the contract without owner. It will not be possible to call `onlyOwner` functions anymore. Can only be called by the current owner. NOTE: Renouncing ownership will leave the contract without an owner, thereby removing any functionality that is only available to the owner."
      },
      "safeTransferFrom(address,address,uint256)": {
        "details": "See {IERC721-safeTransferFrom}."
      },
      "safeTransferFrom(address,address,uint256,bytes)": {
        "details": "See {IERC721-safeTransferFrom}."
      },
      "setApprovalForAll(address,bool)": {
        "details": "See {IERC721-setApprovalForAll}."
      },
      "supportsInterface(bytes4)": {
        "details": "See {IERC165-supportsInterface}."
      },
      "symbol()": {
        "details": "See {IERC721Metadata-symbol}."
      },
      "tokenURI(uint256)": {
        "details": "See {IERC721Metadata-tokenURI}."
      },
      "transferFrom(address,address,uint256)": {
        "details": "See {IERC721-transferFrom}."
      },
      "transferOwnership(address)": {
        "details": "Transfers ownership of the contract to a new account (`newOwner`). Can only be called by the current owner."
      }
    },
    "version": 1
  },
  "userdoc": {
    "kind": "user",
    "methods": {},
    "version": 1
  }
}