{
  "contractName": "Market",
  "abi": [
    {
      "inputs": [],
      "stateMutability": "nonpayable",
      "type": "constructor"
    },
    {
      "anonymous": false,
      "inputs": [
        {
          "indexed": true,
          "internalType": "address",
          "name": "previousOwner",
          "type": "address"
        },
        {
          "indexed": true,
          "internalType": "address",
          "name": "newOwner",
          "type": "address"
        }
      ],
      "name": "OwnershipTransferred",
      "type": "event"
    },
    {
      "anonymous": false,
      "inputs": [
        {
          "indexed": true,
          "internalType": "address",
          "name": "sender",
          "type": "address"
        },
        {
          "indexed": true,
          "internalType": "address",
          "name": "receiver",
          "type": "address"
        },
        {
          "indexed": false,
          "internalType": "uint256",
          "name": "price",
          "type": "uint256"
        }
      ],
      "name": "SendEther",
      "type": "event"
    },
    {
      "inputs": [],
      "name": "NFTAddress",
      "outputs": [
        {
          "internalType": "address",
          "name": "",
          "type": "address"
        }
      ],
      "stateMutability": "view",
      "type": "function"
    },
    {
      "inputs": [],
      "name": "admin",
      "outputs": [
        {
          "internalType": "address",
          "name": "",
          "type": "address"
        }
      ],
      "stateMutability": "view",
      "type": "function"
    },
    {
      "inputs": [],
      "name": "myAddress",
      "outputs": [
        {
          "internalType": "address",
          "name": "",
          "type": "address"
        }
      ],
      "stateMutability": "view",
      "type": "function"
    },
    {
      "inputs": [],
      "name": "owner",
      "outputs": [
        {
          "internalType": "address",
          "name": "",
          "type": "address"
        }
      ],
      "stateMutability": "view",
      "type": "function"
    },
    {
      "inputs": [],
      "name": "renounceOwnership",
      "outputs": [],
      "stateMutability": "nonpayable",
      "type": "function"
    },
    {
      "inputs": [
        {
          "internalType": "uint256",
          "name": "",
          "type": "uint256"
        }
      ],
      "name": "sales",
      "outputs": [
        {
          "internalType": "address",
          "name": "seller",
          "type": "address"
        }
      ],
      "stateMutability": "view",
      "type": "function"
    },
    {
      "inputs": [
        {
          "internalType": "address",
          "name": "newOwner",
          "type": "address"
        }
      ],
      "name": "transferOwnership",
      "outputs": [],
      "stateMutability": "nonpayable",
      "type": "function"
    },
    {
      "inputs": [
        {
          "internalType": "address",
          "name": "_NFTAddress",
          "type": "address"
        }
      ],
      "name": "setNFTAddress",
      "outputs": [],
      "stateMutability": "nonpayable",
      "type": "function"
    },
    {
      "inputs": [],
      "name": "getNFTAddress",
      "outputs": [
        {
          "internalType": "address",
          "name": "",
          "type": "address"
        }
      ],
      "stateMutability": "view",
      "type": "function"
    },
    {
      "inputs": [
        {
          "internalType": "address",
          "name": "seller",
          "type": "address"
        },
        {
          "internalType": "uint256",
          "name": "tokenId",
          "type": "uint256"
        }
      ],
      "name": "newSale",
      "outputs": [
        {
          "internalType": "bool",
          "name": "",
          "type": "bool"
        }
      ],
      "stateMutability": "nonpayable",
      "type": "function"
    },
    {
      "inputs": [
        {
          "internalType": "uint256",
          "name": "tokenId",
          "type": "uint256"
        },
        {
          "internalType": "bool",
          "name": "isCancel",
          "type": "bool"
        }
      ],
      "name": "deleteSale",
      "outputs": [
        {
          "internalType": "bool",
          "name": "",
          "type": "bool"
        }
      ],
      "stateMutability": "nonpayable",
      "type": "function"
    },
    {
      "inputs": [
        {
          "internalType": "uint256",
          "name": "tokenId",
          "type": "uint256"
        }
      ],
      "name": "getSales",
      "outputs": [
        {
          "components": [
            {
              "internalType": "address",
              "name": "seller",
              "type": "address"
            }
          ],
          "internalType": "struct Market.Sales",
          "name": "",
          "type": "tuple"
        }
      ],
      "stateMutability": "view",
      "type": "function"
    },
    {
      "inputs": [],
      "name": "getAdmin",
      "outputs": [
        {
          "internalType": "address",
          "name": "",
          "type": "address"
        }
      ],
      "stateMutability": "view",
      "type": "function"
    },
    {
      "inputs": [
        {
          "internalType": "uint256",
          "name": "tokenId",
          "type": "uint256"
        }
      ],
      "name": "trading",
      "outputs": [
        {
          "internalType": "bool",
          "name": "",
          "type": "bool"
        }
      ],
      "stateMutability": "payable",
      "type": "function"
    },
    {
      "inputs": [
        {
          "internalType": "address",
          "name": "donateGetter",
          "type": "address"
        },
        {
          "internalType": "string",
          "name": "assetName",
          "type": "string"
        },
        {
          "internalType": "string",
          "name": "assetDesc",
          "type": "string"
        },
        {
          "internalType": "string",
          "name": "assetImageUrl",
          "type": "string"
        }
      ],
      "name": "donating",
      "outputs": [
        {
          "components": [
            {
              "internalType": "address",
              "name": "owner",
              "type": "address"
            },
            {
              "internalType": "string",
              "name": "assetName",
              "type": "string"
            },
            {
              "internalType": "string",
              "name": "assetDesc",
              "type": "string"
            },
            {
              "internalType": "uint256",
              "name": "tokenId",
              "type": "uint256"
            },
            {
              "internalType": "string",
              "name": "tokenURI",
              "type": "string"
            },
            {
              "internalType": "uint256",
              "name": "donateAmmount",
              "type": "uint256"
            }
          ],
          "internalType": "struct DonateNFT.Tokens",
          "name": "",
          "type": "tuple"
        }
      ],
      "stateMutability": "payable",
      "type": "function"
    }
  ],
  "bytecode": "0x608060405234801561001057600080fd5b5061002d6100226100b460201b60201c565b6100bc60201b60201c565b33600160006101000a81548173ffffffffffffffffffffffffffffffffffffffff021916908373ffffffffffffffffffffffffffffffffffffffff16021790555030600360006101000a81548173ffffffffffffffffffffffffffffffffffffffff021916908373ffffffffffffffffffffffffffffffffffffffff160217905550610180565b600033905090565b60008060009054906101000a900473ffffffffffffffffffffffffffffffffffffffff169050816000806101000a81548173ffffffffffffffffffffffffffffffffffffffff021916908373ffffffffffffffffffffffffffffffffffffffff1602179055508173ffffffffffffffffffffffffffffffffffffffff168173ffffffffffffffffffffffffffffffffffffffff167f8be0079c531659141344cd1fd0a4f28419497f9722a3daafe3b4186f6b6457e060405160405180910390a35050565b6117a28061018f6000396000f3fe6080604052600436106100e85760003560e01c8063715018a61161008a578063f2fde38b11610059578063f2fde38b146102eb578063f644529714610314578063f851a44014610344578063fa36543f1461036f576100e8565b8063715018a6146102415780638da5cb5b14610258578063b5f522f714610283578063b9618478146102c0576100e8565b8063310c87cc116100c6578063310c87cc1461018557806369d03738146101b05780636e9960c3146101d95780636f905b7814610204576100e8565b8063180d3fbb146100ed57806326b85ee11461012a5780632e0c9ced14610155575b600080fd5b3480156100f957600080fd5b50610114600480360381019061010f9190610deb565b6103ac565b6040516101219190610e46565b60405180910390f35b34801561013657600080fd5b5061013f610436565b60405161014c9190610e70565b60405180910390f35b61016f600480360381019061016a9190610e8b565b61045c565b60405161017c9190610e46565b60405180910390f35b34801561019157600080fd5b5061019a6105ed565b6040516101a79190610e70565b60405180910390f35b3480156101bc57600080fd5b506101d760048036038101906101d29190610eb8565b610613565b005b3480156101e557600080fd5b506101ee610657565b6040516101fb9190610e70565b60405180910390f35b34801561021057600080fd5b5061022b60048036038101906102269190610e8b565b610681565b6040516102389190610f10565b60405180910390f35b34801561024d57600080fd5b50610256610704565b005b34801561026457600080fd5b5061026d61078c565b60405161027a9190610e70565b60405180910390f35b34801561028f57600080fd5b506102aa60048036038101906102a59190610e8b565b6107b5565b6040516102b79190610e70565b60405180910390f35b3480156102cc57600080fd5b506102d56107f3565b6040516102e29190610e70565b60405180910390f35b3480156102f757600080fd5b50610312600480360381019061030d9190610eb8565b61081d565b005b61032e60048036038101906103299190611071565b610915565b60405161033b919061125a565b60405180910390f35b34801561035057600080fd5b50610359610a25565b6040516103669190610e70565b60405180910390f35b34801561037b57600080fd5b50610396600480360381019061039191906112a8565b610a4b565b6040516103a39190610e46565b60405180910390f35b600060405180602001604052808473ffffffffffffffffffffffffffffffffffffffff168152506004600084815260200190815260200160002060008201518160000160006101000a81548173ffffffffffffffffffffffffffffffffffffffff021916908373ffffffffffffffffffffffffffffffffffffffff16021790555090505092915050565b600360009054906101000a900473ffffffffffffffffffffffffffffffffffffffff1681565b60008033905060006004600085815260200190815260200160002060000160009054906101000a900473ffffffffffffffffffffffffffffffffffffffff1690508073ffffffffffffffffffffffffffffffffffffffff168273ffffffffffffffffffffffffffffffffffffffff167f252b244cefdc24522fc84ee13ea3162cf8b8530956a0813769abe078fa30a327346040516104fa91906112f7565b60405180910390a38073ffffffffffffffffffffffffffffffffffffffff166108fc349081150290604051600060405180830381858888f19350505050158015610548573d6000803e3d6000fd5b50600260009054906101000a900473ffffffffffffffffffffffffffffffffffffffff1673ffffffffffffffffffffffffffffffffffffffff166323b872dd3084876040518463ffffffff1660e01b81526004016105a893929190611312565b600060405180830381600087803b1580156105c257600080fd5b505af11580156105d6573d6000803e3d6000fd5b505050506105e5846000610a4b565b505050919050565b600260009054906101000a900473ffffffffffffffffffffffffffffffffffffffff1681565b80600260006101000a81548173ffffffffffffffffffffffffffffffffffffffff021916908373ffffffffffffffffffffffffffffffffffffffff16021790555050565b6000600160009054906101000a900473ffffffffffffffffffffffffffffffffffffffff16905090565b610689610cce565b600460008381526020019081526020016000206040518060200160405290816000820160009054906101000a900473ffffffffffffffffffffffffffffffffffffffff1673ffffffffffffffffffffffffffffffffffffffff1673ffffffffffffffffffffffffffffffffffffffff16815250509050919050565b61070c610c02565b73ffffffffffffffffffffffffffffffffffffffff1661072a61078c565b73ffffffffffffffffffffffffffffffffffffffff1614610780576040517f08c379a0000000000000000000000000000000000000000000000000000000008152600401610777906113a6565b60405180910390fd5b61078a6000610c0a565b565b60008060009054906101000a900473ffffffffffffffffffffffffffffffffffffffff16905090565b60046020528060005260406000206000915090508060000160009054906101000a900473ffffffffffffffffffffffffffffffffffffffff16905081565b6000600260009054906101000a900473ffffffffffffffffffffffffffffffffffffffff16905090565b610825610c02565b73ffffffffffffffffffffffffffffffffffffffff1661084361078c565b73ffffffffffffffffffffffffffffffffffffffff1614610899576040517f08c379a0000000000000000000000000000000000000000000000000000000008152600401610890906113a6565b60405180910390fd5b600073ffffffffffffffffffffffffffffffffffffffff168173ffffffffffffffffffffffffffffffffffffffff161415610909576040517f08c379a000000000000000000000000000000000000000000000000000000000815260040161090090611438565b60405180910390fd5b61091281610c0a565b50565b61091d610cf7565b600033905060008690508073ffffffffffffffffffffffffffffffffffffffff166108fc349081150290604051600060405180830381858888f1935050505015801561096d573d6000803e3d6000fd5b50600260009054906101000a900473ffffffffffffffffffffffffffffffffffffffff1673ffffffffffffffffffffffffffffffffffffffff16631157022f83888888346040518663ffffffff1660e01b81526004016109d1959493929190611491565b6000604051808303816000875af11580156109f0573d6000803e3d6000fd5b505050506040513d6000823e3d601f19601f82011682018060405250810190610a199190611691565b92505050949350505050565b600160009054906101000a900473ffffffffffffffffffffffffffffffffffffffff1681565b60008115610bbf573373ffffffffffffffffffffffffffffffffffffffff166004600085815260200190815260200160002060000160009054906101000a900473ffffffffffffffffffffffffffffffffffffffff1673ffffffffffffffffffffffffffffffffffffffff1614610af7576040517f08c379a0000000000000000000000000000000000000000000000000000000008152600401610aee9061174c565b60405180910390fd5b600260009054906101000a900473ffffffffffffffffffffffffffffffffffffffff1673ffffffffffffffffffffffffffffffffffffffff166323b872dd306004600087815260200190815260200160002060000160009054906101000a900473ffffffffffffffffffffffffffffffffffffffff16866040518463ffffffff1660e01b8152600401610b8c93929190611312565b600060405180830381600087803b158015610ba657600080fd5b505af1158015610bba573d6000803e3d6000fd5b505050505b60046000848152602001908152602001600020600080820160006101000a81549073ffffffffffffffffffffffffffffffffffffffff0219169055505092915050565b600033905090565b60008060009054906101000a900473ffffffffffffffffffffffffffffffffffffffff169050816000806101000a81548173ffffffffffffffffffffffffffffffffffffffff021916908373ffffffffffffffffffffffffffffffffffffffff1602179055508173ffffffffffffffffffffffffffffffffffffffff168173ffffffffffffffffffffffffffffffffffffffff167f8be0079c531659141344cd1fd0a4f28419497f9722a3daafe3b4186f6b6457e060405160405180910390a35050565b6040518060200160405280600073ffffffffffffffffffffffffffffffffffffffff1681525090565b6040518060c00160405280600073ffffffffffffffffffffffffffffffffffffffff16815260200160608152602001606081526020016000815260200160608152602001600081525090565b6000604051905090565b600080fd5b600080fd5b600073ffffffffffffffffffffffffffffffffffffffff82169050919050565b6000610d8282610d57565b9050919050565b610d9281610d77565b8114610d9d57600080fd5b50565b600081359050610daf81610d89565b92915050565b6000819050919050565b610dc881610db5565b8114610dd357600080fd5b50565b600081359050610de581610dbf565b92915050565b60008060408385031215610e0257610e01610d4d565b5b6000610e1085828601610da0565b9250506020610e2185828601610dd6565b9150509250929050565b60008115159050919050565b610e4081610e2b565b82525050565b6000602082019050610e5b6000830184610e37565b92915050565b610e6a81610d77565b82525050565b6000602082019050610e856000830184610e61565b92915050565b600060208284031215610ea157610ea0610d4d565b5b6000610eaf84828501610dd6565b91505092915050565b600060208284031215610ece57610ecd610d4d565b5b6000610edc84828501610da0565b91505092915050565b610eee81610d77565b82525050565b602082016000820151610f0a6000850182610ee5565b50505050565b6000602082019050610f256000830184610ef4565b92915050565b600080fd5b600080fd5b6000601f19601f8301169050919050565b7f4e487b7100000000000000000000000000000000000000000000000000000000600052604160045260246000fd5b610f7e82610f35565b810181811067ffffffffffffffff82111715610f9d57610f9c610f46565b5b80604052505050565b6000610fb0610d43565b9050610fbc8282610f75565b919050565b600067ffffffffffffffff821115610fdc57610fdb610f46565b5b610fe582610f35565b9050602081019050919050565b82818337600083830152505050565b600061101461100f84610fc1565b610fa6565b9050828152602081018484840111156110305761102f610f30565b5b61103b848285610ff2565b509392505050565b600082601f83011261105857611057610f2b565b5b8135611068848260208601611001565b91505092915050565b6000806000806080858703121561108b5761108a610d4d565b5b600061109987828801610da0565b945050602085013567ffffffffffffffff8111156110ba576110b9610d52565b5b6110c687828801611043565b935050604085013567ffffffffffffffff8111156110e7576110e6610d52565b5b6110f387828801611043565b925050606085013567ffffffffffffffff81111561111457611113610d52565b5b61112087828801611043565b91505092959194509250565b600081519050919050565b600082825260208201905092915050565b60005b8381101561116657808201518184015260208101905061114b565b83811115611175576000848401525b50505050565b60006111868261112c565b6111908185611137565b93506111a0818560208601611148565b6111a981610f35565b840191505092915050565b6111bd81610db5565b82525050565b600060c0830160008301516111db6000860182610ee5565b50602083015184820360208601526111f3828261117b565b9150506040830151848203604086015261120d828261117b565b915050606083015161122260608601826111b4565b506080830151848203608086015261123a828261117b565b91505060a083015161124f60a08601826111b4565b508091505092915050565b6000602082019050818103600083015261127481846111c3565b905092915050565b61128581610e2b565b811461129057600080fd5b50565b6000813590506112a28161127c565b92915050565b600080604083850312156112bf576112be610d4d565b5b60006112cd85828601610dd6565b92505060206112de85828601611293565b9150509250929050565b6112f181610db5565b82525050565b600060208201905061130c60008301846112e8565b92915050565b60006060820190506113276000830186610e61565b6113346020830185610e61565b61134160408301846112e8565b949350505050565b600082825260208201905092915050565b7f4f776e61626c653a2063616c6c6572206973206e6f7420746865206f776e6572600082015250565b6000611390602083611349565b915061139b8261135a565b602082019050919050565b600060208201905081810360008301526113bf81611383565b9050919050565b7f4f776e61626c653a206e6577206f776e657220697320746865207a65726f206160008201527f6464726573730000000000000000000000000000000000000000000000000000602082015250565b6000611422602683611349565b915061142d826113c6565b604082019050919050565b6000602082019050818103600083015261145181611415565b9050919050565b60006114638261112c565b61146d8185611349565b935061147d818560208601611148565b61148681610f35565b840191505092915050565b600060a0820190506114a66000830188610e61565b81810360208301526114b88187611458565b905081810360408301526114cc8186611458565b905081810360608301526114e08185611458565b90506114ef60808301846112e8565b9695505050505050565b600080fd5b600080fd5b60008151905061151281610d89565b92915050565b600061152b61152684610fc1565b610fa6565b90508281526020810184848401111561154757611546610f30565b5b611552848285611148565b509392505050565b600082601f83011261156f5761156e610f2b565b5b815161157f848260208601611518565b91505092915050565b60008151905061159781610dbf565b92915050565b600060c082840312156115b3576115b26114f9565b5b6115bd60c0610fa6565b905060006115cd84828501611503565b600083015250602082015167ffffffffffffffff8111156115f1576115f06114fe565b5b6115fd8482850161155a565b602083015250604082015167ffffffffffffffff811115611621576116206114fe565b5b61162d8482850161155a565b604083015250606061164184828501611588565b606083015250608082015167ffffffffffffffff811115611665576116646114fe565b5b6116718482850161155a565b60808301525060a061168584828501611588565b60a08301525092915050565b6000602082840312156116a7576116a6610d4d565b5b600082015167ffffffffffffffff8111156116c5576116c4610d52565b5b6116d18482850161159d565b91505092915050565b7f596f7520617265206e6f74206f776e65722121204f6e6c79206f776e6572206360008201527f616e2063616e63656c207468652073616c652100000000000000000000000000602082015250565b6000611736603383611349565b9150611741826116da565b604082019050919050565b6000602082019050818103600083015261176581611729565b905091905056fea2646970667358221220709f92aa27ae30fbe87792b04fd7ca6d9f419d1a85528666ef0bef349f03ab6264736f6c634300080a0033",
  "immutableReferences": {},
  "source": "// SPDX-License-Identifier: MIT\r\npragma solidity ^0.8.4;\r\n\r\nimport \"./access/Ownable.sol\";\r\nimport \"./token/ERC20/ERC20.sol\";\r\nimport \"./token/ERC721/ERC721.sol\";\r\nimport \"./DonateNFT.sol\";\r\n\r\ncontract Market is Ownable {\r\n    address public admin;\r\n    address public NFTAddress;\r\n    address public myAddress;\r\n    mapping(uint256 => Sales) public sales;\r\n\r\n    struct Sales {\r\n        address seller;\r\n    }\r\n\r\n    event SendEther(\r\n        address indexed sender,\r\n        address indexed receiver,\r\n        uint256 price\r\n    );\r\n\r\n    constructor() {\r\n        admin = msg.sender;\r\n        myAddress = address(this);\r\n    }\r\n\r\n    function setNFTAddress(address _NFTAddress) public {\r\n        NFTAddress = _NFTAddress;\r\n    }\r\n\r\n    function getNFTAddress() public view returns (address) {\r\n        return NFTAddress;\r\n    }\r\n\r\n    function newSale(address seller, uint256 tokenId) public returns (bool) {\r\n        sales[tokenId] = Sales(seller);\r\n    }\r\n\r\n    function deleteSale(uint256 tokenId, bool isCancel) public returns (bool) {\r\n        if (isCancel) {\r\n            require(\r\n                sales[tokenId].seller == msg.sender,\r\n                \"You are not owner!! Only owner can cancel the sale!\"\r\n            );\r\n\r\n            DonateNFT(NFTAddress).transferFrom(\r\n                address(this),\r\n                sales[tokenId].seller,\r\n                tokenId\r\n            );\r\n        }\r\n\r\n        delete sales[tokenId];\r\n    }\r\n\r\n    function getSales(uint256 tokenId) public view returns (Sales memory) {\r\n        return sales[tokenId];\r\n    }\r\n\r\n    function getAdmin() public view returns (address) {\r\n        return admin;\r\n    }\r\n\r\n    function trading(uint256 tokenId) public payable returns (bool) {\r\n        address buyer = msg.sender;\r\n        address payable seller = payable(sales[tokenId].seller);\r\n        emit SendEther(buyer, seller, msg.value);\r\n        seller.transfer(msg.value);\r\n\r\n        DonateNFT(NFTAddress).transferFrom(address(this), buyer, tokenId);\r\n\r\n        deleteSale(tokenId, false);\r\n    }\r\n\r\n    function donating(\r\n        address donateGetter,\r\n        string memory assetName,\r\n        string memory assetDesc,\r\n        string memory assetImageUrl\r\n    ) public payable returns (DonateNFT.Tokens memory) {\r\n        address donatingAddress = msg.sender;\r\n        address payable getter = payable(donateGetter);\r\n        getter.transfer(msg.value);\r\n\r\n        return\r\n            DonateNFT(NFTAddress).create(\r\n                donatingAddress,\r\n                assetName,\r\n                assetDesc,\r\n                assetImageUrl,\r\n                msg.value\r\n            );\r\n    }\r\n}\r\n",
  "sourcePath": "D:\\SSAFY\\work_SSAFY\\PJT\\S06P22D109\\smart-contracts\\contracts\\Market.sol",
  "compiler": {
    "name": "solc",
    "version": "0.8.10+commit.fc410830.Emscripten.clang"
  },
  "schemaVersion": "3.4.3",
  "updatedAt": "2022-04-06T05:11:54.145Z",
  "devdoc": {
    "kind": "dev",
    "methods": {
      "owner()": {
        "details": "Returns the address of the current owner."
      },
      "renounceOwnership()": {
        "details": "Leaves the contract without owner. It will not be possible to call `onlyOwner` functions anymore. Can only be called by the current owner. NOTE: Renouncing ownership will leave the contract without an owner, thereby removing any functionality that is only available to the owner."
      },
      "transferOwnership(address)": {
        "details": "Transfers ownership of the contract to a new account (`newOwner`). Can only be called by the current owner."
      }
    },
    "version": 1
  },
  "userdoc": {
    "kind": "user",
    "methods": {},
    "version": 1
  }
}