{
  "contractName": "Market",
  "abi": [
    {
      "inputs": [],
      "stateMutability": "nonpayable",
      "type": "constructor"
    },
    {
      "anonymous": false,
      "inputs": [
        {
          "indexed": true,
          "internalType": "address",
          "name": "previousOwner",
          "type": "address"
        },
        {
          "indexed": true,
          "internalType": "address",
          "name": "newOwner",
          "type": "address"
        }
      ],
      "name": "OwnershipTransferred",
      "type": "event"
    },
    {
      "anonymous": false,
      "inputs": [
        {
          "indexed": true,
          "internalType": "address",
          "name": "sender",
          "type": "address"
        },
        {
          "indexed": true,
          "internalType": "address",
          "name": "receiver",
          "type": "address"
        },
        {
          "indexed": false,
          "internalType": "uint256",
          "name": "price",
          "type": "uint256"
        }
      ],
      "name": "SendEther",
      "type": "event"
    },
    {
      "inputs": [],
      "name": "NFTAddress",
      "outputs": [
        {
          "internalType": "address",
          "name": "",
          "type": "address"
        }
      ],
      "stateMutability": "view",
      "type": "function"
    },
    {
      "inputs": [],
      "name": "admin",
      "outputs": [
        {
          "internalType": "address",
          "name": "",
          "type": "address"
        }
      ],
      "stateMutability": "view",
      "type": "function"
    },
    {
      "inputs": [],
      "name": "myAddress",
      "outputs": [
        {
          "internalType": "address",
          "name": "",
          "type": "address"
        }
      ],
      "stateMutability": "view",
      "type": "function"
    },
    {
      "inputs": [],
      "name": "owner",
      "outputs": [
        {
          "internalType": "address",
          "name": "",
          "type": "address"
        }
      ],
      "stateMutability": "view",
      "type": "function"
    },
    {
      "inputs": [],
      "name": "renounceOwnership",
      "outputs": [],
      "stateMutability": "nonpayable",
      "type": "function"
    },
    {
      "inputs": [
        {
          "internalType": "uint256",
          "name": "",
          "type": "uint256"
        }
      ],
      "name": "sales",
      "outputs": [
        {
          "internalType": "address",
          "name": "seller",
          "type": "address"
        }
      ],
      "stateMutability": "view",
      "type": "function"
    },
    {
      "inputs": [
        {
          "internalType": "address",
          "name": "newOwner",
          "type": "address"
        }
      ],
      "name": "transferOwnership",
      "outputs": [],
      "stateMutability": "nonpayable",
      "type": "function"
    },
    {
      "inputs": [
        {
          "internalType": "address",
          "name": "_NFTAddress",
          "type": "address"
        }
      ],
      "name": "setNFTAddress",
      "outputs": [],
      "stateMutability": "nonpayable",
      "type": "function"
    },
    {
      "inputs": [],
      "name": "getNFTAddress",
      "outputs": [
        {
          "internalType": "address",
          "name": "",
          "type": "address"
        }
      ],
      "stateMutability": "view",
      "type": "function"
    },
    {
      "inputs": [
        {
          "internalType": "address",
          "name": "seller",
          "type": "address"
        },
        {
          "internalType": "uint256",
          "name": "tokenId",
          "type": "uint256"
        }
      ],
      "name": "newSale",
      "outputs": [
        {
          "internalType": "bool",
          "name": "",
          "type": "bool"
        }
      ],
      "stateMutability": "nonpayable",
      "type": "function"
    },
    {
      "inputs": [
        {
          "internalType": "uint256",
          "name": "tokenId",
          "type": "uint256"
        }
      ],
      "name": "deleteSale",
      "outputs": [
        {
          "internalType": "bool",
          "name": "",
          "type": "bool"
        }
      ],
      "stateMutability": "nonpayable",
      "type": "function"
    },
    {
      "inputs": [
        {
          "internalType": "uint256",
          "name": "tokenId",
          "type": "uint256"
        }
      ],
      "name": "getSales",
      "outputs": [
        {
          "components": [
            {
              "internalType": "address",
              "name": "seller",
              "type": "address"
            }
          ],
          "internalType": "struct Market.Sales",
          "name": "",
          "type": "tuple"
        }
      ],
      "stateMutability": "view",
      "type": "function"
    },
    {
      "inputs": [],
      "name": "getAdmin",
      "outputs": [
        {
          "internalType": "address",
          "name": "",
          "type": "address"
        }
      ],
      "stateMutability": "view",
      "type": "function"
    },
    {
      "inputs": [
        {
          "internalType": "uint256",
          "name": "tokenId",
          "type": "uint256"
        }
      ],
      "name": "trading",
      "outputs": [
        {
          "internalType": "bool",
          "name": "",
          "type": "bool"
        }
      ],
      "stateMutability": "payable",
      "type": "function"
    },
    {
      "inputs": [
        {
          "internalType": "address",
          "name": "donateGetter",
          "type": "address"
        },
        {
          "internalType": "string",
          "name": "assetName",
          "type": "string"
        },
        {
          "internalType": "string",
          "name": "assetDesc",
          "type": "string"
        },
        {
          "internalType": "string",
          "name": "assetImageUrl",
          "type": "string"
        }
      ],
      "name": "donating",
      "outputs": [
        {
          "components": [
            {
              "internalType": "address",
              "name": "owner",
              "type": "address"
            },
            {
              "internalType": "string",
              "name": "assetName",
              "type": "string"
            },
            {
              "internalType": "string",
              "name": "assetDesc",
              "type": "string"
            },
            {
              "internalType": "uint256",
              "name": "tokenId",
              "type": "uint256"
            },
            {
              "internalType": "string",
              "name": "tokenURI",
              "type": "string"
            },
            {
              "internalType": "uint256",
              "name": "donateAmmount",
              "type": "uint256"
            }
          ],
          "internalType": "struct DonateNFT.Tokens",
          "name": "",
          "type": "tuple"
        }
      ],
      "stateMutability": "payable",
      "type": "function"
    }
  ],
  "bytecode": "0x608060405234801561001057600080fd5b5061002d6100226100b460201b60201c565b6100bc60201b60201c565b33600160006101000a81548173ffffffffffffffffffffffffffffffffffffffff021916908373ffffffffffffffffffffffffffffffffffffffff16021790555030600360006101000a81548173ffffffffffffffffffffffffffffffffffffffff021916908373ffffffffffffffffffffffffffffffffffffffff160217905550610180565b600033905090565b60008060009054906101000a900473ffffffffffffffffffffffffffffffffffffffff169050816000806101000a81548173ffffffffffffffffffffffffffffffffffffffff021916908373ffffffffffffffffffffffffffffffffffffffff1602179055508173ffffffffffffffffffffffffffffffffffffffff168173ffffffffffffffffffffffffffffffffffffffff167f8be0079c531659141344cd1fd0a4f28419497f9722a3daafe3b4186f6b6457e060405160405180910390a35050565b61153b8061018f6000396000f3fe6080604052600436106100e85760003560e01c8063715018a61161008a578063c9f0605511610059578063c9f06055146102eb578063f2fde38b14610328578063f644529714610351578063f851a44014610381576100e8565b8063715018a6146102415780638da5cb5b14610258578063b5f522f714610283578063b9618478146102c0576100e8565b8063310c87cc116100c6578063310c87cc1461018557806369d03738146101b05780636e9960c3146101d95780636f905b7814610204576100e8565b8063180d3fbb146100ed57806326b85ee11461012a5780632e0c9ced14610155575b600080fd5b3480156100f957600080fd5b50610114600480360381019061010f9190610c82565b6103ac565b6040516101219190610cdd565b60405180910390f35b34801561013657600080fd5b5061013f61043a565b60405161014c9190610d07565b60405180910390f35b61016f600480360381019061016a9190610d22565b610460565b60405161017c9190610cdd565b60405180910390f35b34801561019157600080fd5b5061019a6105f3565b6040516101a79190610d07565b60405180910390f35b3480156101bc57600080fd5b506101d760048036038101906101d29190610d4f565b610619565b005b3480156101e557600080fd5b506101ee61065d565b6040516101fb9190610d07565b60405180910390f35b34801561021057600080fd5b5061022b60048036038101906102269190610d22565b610687565b6040516102389190610da7565b60405180910390f35b34801561024d57600080fd5b5061025661070a565b005b34801561026457600080fd5b5061026d610792565b60405161027a9190610d07565b60405180910390f35b34801561028f57600080fd5b506102aa60048036038101906102a59190610d22565b6107bb565b6040516102b79190610d07565b60405180910390f35b3480156102cc57600080fd5b506102d56107f9565b6040516102e29190610d07565b60405180910390f35b3480156102f757600080fd5b50610312600480360381019061030d9190610d22565b610823565b60405161031f9190610cdd565b60405180910390f35b34801561033457600080fd5b5061034f600480360381019061034a9190610d4f565b61086b565b005b61036b60048036038101906103669190610f08565b610963565b60405161037891906110f1565b60405180910390f35b34801561038d57600080fd5b50610396610a73565b6040516103a39190610d07565b60405180910390f35b600060405180602001604052808473ffffffffffffffffffffffffffffffffffffffff168152506004600084815260200190815260200160002060008201518160000160006101000a81548173ffffffffffffffffffffffffffffffffffffffff021916908373ffffffffffffffffffffffffffffffffffffffff1602179055509050506001905092915050565b600360009054906101000a900473ffffffffffffffffffffffffffffffffffffffff1681565b60008033905060006004600085815260200190815260200160002060000160009054906101000a900473ffffffffffffffffffffffffffffffffffffffff1690508073ffffffffffffffffffffffffffffffffffffffff168273ffffffffffffffffffffffffffffffffffffffff167f252b244cefdc24522fc84ee13ea3162cf8b8530956a0813769abe078fa30a327346040516104fe9190611122565b60405180910390a38073ffffffffffffffffffffffffffffffffffffffff166108fc349081150290604051600060405180830381858888f1935050505015801561054c573d6000803e3d6000fd5b50600260009054906101000a900473ffffffffffffffffffffffffffffffffffffffff1673ffffffffffffffffffffffffffffffffffffffff166323b872dd3084876040518463ffffffff1660e01b81526004016105ac9392919061113d565b600060405180830381600087803b1580156105c657600080fd5b505af11580156105da573d6000803e3d6000fd5b505050506105e784610823565b50600192505050919050565b600260009054906101000a900473ffffffffffffffffffffffffffffffffffffffff1681565b80600260006101000a81548173ffffffffffffffffffffffffffffffffffffffff021916908373ffffffffffffffffffffffffffffffffffffffff16021790555050565b6000600160009054906101000a900473ffffffffffffffffffffffffffffffffffffffff16905090565b61068f610b65565b600460008381526020019081526020016000206040518060200160405290816000820160009054906101000a900473ffffffffffffffffffffffffffffffffffffffff1673ffffffffffffffffffffffffffffffffffffffff1673ffffffffffffffffffffffffffffffffffffffff16815250509050919050565b610712610a99565b73ffffffffffffffffffffffffffffffffffffffff16610730610792565b73ffffffffffffffffffffffffffffffffffffffff1614610786576040517f08c379a000000000000000000000000000000000000000000000000000000000815260040161077d906111d1565b60405180910390fd5b6107906000610aa1565b565b60008060009054906101000a900473ffffffffffffffffffffffffffffffffffffffff16905090565b60046020528060005260406000206000915090508060000160009054906101000a900473ffffffffffffffffffffffffffffffffffffffff16905081565b6000600260009054906101000a900473ffffffffffffffffffffffffffffffffffffffff16905090565b600060046000838152602001908152602001600020600080820160006101000a81549073ffffffffffffffffffffffffffffffffffffffff0219169055505060019050919050565b610873610a99565b73ffffffffffffffffffffffffffffffffffffffff16610891610792565b73ffffffffffffffffffffffffffffffffffffffff16146108e7576040517f08c379a00000000000000000000000000000000000000000000000000000000081526004016108de906111d1565b60405180910390fd5b600073ffffffffffffffffffffffffffffffffffffffff168173ffffffffffffffffffffffffffffffffffffffff161415610957576040517f08c379a000000000000000000000000000000000000000000000000000000000815260040161094e90611263565b60405180910390fd5b61096081610aa1565b50565b61096b610b8e565b600033905060008690508073ffffffffffffffffffffffffffffffffffffffff166108fc349081150290604051600060405180830381858888f193505050501580156109bb573d6000803e3d6000fd5b50600260009054906101000a900473ffffffffffffffffffffffffffffffffffffffff1673ffffffffffffffffffffffffffffffffffffffff16631157022f83888888346040518663ffffffff1660e01b8152600401610a1f9594939291906112bc565b6000604051808303816000875af1158015610a3e573d6000803e3d6000fd5b505050506040513d6000823e3d601f19601f82011682018060405250810190610a6791906114bc565b92505050949350505050565b600160009054906101000a900473ffffffffffffffffffffffffffffffffffffffff1681565b600033905090565b60008060009054906101000a900473ffffffffffffffffffffffffffffffffffffffff169050816000806101000a81548173ffffffffffffffffffffffffffffffffffffffff021916908373ffffffffffffffffffffffffffffffffffffffff1602179055508173ffffffffffffffffffffffffffffffffffffffff168173ffffffffffffffffffffffffffffffffffffffff167f8be0079c531659141344cd1fd0a4f28419497f9722a3daafe3b4186f6b6457e060405160405180910390a35050565b6040518060200160405280600073ffffffffffffffffffffffffffffffffffffffff1681525090565b6040518060c00160405280600073ffffffffffffffffffffffffffffffffffffffff16815260200160608152602001606081526020016000815260200160608152602001600081525090565b6000604051905090565b600080fd5b600080fd5b600073ffffffffffffffffffffffffffffffffffffffff82169050919050565b6000610c1982610bee565b9050919050565b610c2981610c0e565b8114610c3457600080fd5b50565b600081359050610c4681610c20565b92915050565b6000819050919050565b610c5f81610c4c565b8114610c6a57600080fd5b50565b600081359050610c7c81610c56565b92915050565b60008060408385031215610c9957610c98610be4565b5b6000610ca785828601610c37565b9250506020610cb885828601610c6d565b9150509250929050565b60008115159050919050565b610cd781610cc2565b82525050565b6000602082019050610cf26000830184610cce565b92915050565b610d0181610c0e565b82525050565b6000602082019050610d1c6000830184610cf8565b92915050565b600060208284031215610d3857610d37610be4565b5b6000610d4684828501610c6d565b91505092915050565b600060208284031215610d6557610d64610be4565b5b6000610d7384828501610c37565b91505092915050565b610d8581610c0e565b82525050565b602082016000820151610da16000850182610d7c565b50505050565b6000602082019050610dbc6000830184610d8b565b92915050565b600080fd5b600080fd5b6000601f19601f8301169050919050565b7f4e487b7100000000000000000000000000000000000000000000000000000000600052604160045260246000fd5b610e1582610dcc565b810181811067ffffffffffffffff82111715610e3457610e33610ddd565b5b80604052505050565b6000610e47610bda565b9050610e538282610e0c565b919050565b600067ffffffffffffffff821115610e7357610e72610ddd565b5b610e7c82610dcc565b9050602081019050919050565b82818337600083830152505050565b6000610eab610ea684610e58565b610e3d565b905082815260208101848484011115610ec757610ec6610dc7565b5b610ed2848285610e89565b509392505050565b600082601f830112610eef57610eee610dc2565b5b8135610eff848260208601610e98565b91505092915050565b60008060008060808587031215610f2257610f21610be4565b5b6000610f3087828801610c37565b945050602085013567ffffffffffffffff811115610f5157610f50610be9565b5b610f5d87828801610eda565b935050604085013567ffffffffffffffff811115610f7e57610f7d610be9565b5b610f8a87828801610eda565b925050606085013567ffffffffffffffff811115610fab57610faa610be9565b5b610fb787828801610eda565b91505092959194509250565b600081519050919050565b600082825260208201905092915050565b60005b83811015610ffd578082015181840152602081019050610fe2565b8381111561100c576000848401525b50505050565b600061101d82610fc3565b6110278185610fce565b9350611037818560208601610fdf565b61104081610dcc565b840191505092915050565b61105481610c4c565b82525050565b600060c0830160008301516110726000860182610d7c565b506020830151848203602086015261108a8282611012565b915050604083015184820360408601526110a48282611012565b91505060608301516110b9606086018261104b565b50608083015184820360808601526110d18282611012565b91505060a08301516110e660a086018261104b565b508091505092915050565b6000602082019050818103600083015261110b818461105a565b905092915050565b61111c81610c4c565b82525050565b60006020820190506111376000830184611113565b92915050565b60006060820190506111526000830186610cf8565b61115f6020830185610cf8565b61116c6040830184611113565b949350505050565b600082825260208201905092915050565b7f4f776e61626c653a2063616c6c6572206973206e6f7420746865206f776e6572600082015250565b60006111bb602083611174565b91506111c682611185565b602082019050919050565b600060208201905081810360008301526111ea816111ae565b9050919050565b7f4f776e61626c653a206e6577206f776e657220697320746865207a65726f206160008201527f6464726573730000000000000000000000000000000000000000000000000000602082015250565b600061124d602683611174565b9150611258826111f1565b604082019050919050565b6000602082019050818103600083015261127c81611240565b9050919050565b600061128e82610fc3565b6112988185611174565b93506112a8818560208601610fdf565b6112b181610dcc565b840191505092915050565b600060a0820190506112d16000830188610cf8565b81810360208301526112e38187611283565b905081810360408301526112f78186611283565b9050818103606083015261130b8185611283565b905061131a6080830184611113565b9695505050505050565b600080fd5b600080fd5b60008151905061133d81610c20565b92915050565b600061135661135184610e58565b610e3d565b90508281526020810184848401111561137257611371610dc7565b5b61137d848285610fdf565b509392505050565b600082601f83011261139a57611399610dc2565b5b81516113aa848260208601611343565b91505092915050565b6000815190506113c281610c56565b92915050565b600060c082840312156113de576113dd611324565b5b6113e860c0610e3d565b905060006113f88482850161132e565b600083015250602082015167ffffffffffffffff81111561141c5761141b611329565b5b61142884828501611385565b602083015250604082015167ffffffffffffffff81111561144c5761144b611329565b5b61145884828501611385565b604083015250606061146c848285016113b3565b606083015250608082015167ffffffffffffffff8111156114905761148f611329565b5b61149c84828501611385565b60808301525060a06114b0848285016113b3565b60a08301525092915050565b6000602082840312156114d2576114d1610be4565b5b600082015167ffffffffffffffff8111156114f0576114ef610be9565b5b6114fc848285016113c8565b9150509291505056fea2646970667358221220ac38701e6ff9ccaf2c006068eb5113b77f32be61a4bd976208611bd5f718819164736f6c634300080a0033",
  "immutableReferences": {},
  "source": "// SPDX-License-Identifier: MIT\r\npragma solidity ^0.8.4;\r\n\r\nimport \"./access/Ownable.sol\";\r\nimport \"./token/ERC20/ERC20.sol\";\r\nimport \"./token/ERC721/ERC721.sol\";\r\nimport \"./DonateNFT.sol\";\r\n\r\ncontract Market is Ownable {\r\n    address public admin;\r\n    address public NFTAddress;\r\n    address public myAddress;\r\n    mapping(uint256 => Sales) public sales;\r\n\r\n    struct Sales {\r\n        address seller;\r\n    }\r\n\r\n    event SendEther(\r\n        address indexed sender,\r\n        address indexed receiver,\r\n        uint256 price\r\n    );\r\n\r\n    constructor() {\r\n        admin = msg.sender;\r\n        myAddress = address(this);\r\n    }\r\n\r\n    function setNFTAddress(address _NFTAddress) public {\r\n        NFTAddress = _NFTAddress;\r\n    }\r\n\r\n    function getNFTAddress() public view returns (address) {\r\n        return NFTAddress;\r\n    }\r\n\r\n    function newSale(address seller, uint256 tokenId) public returns (bool) {\r\n        sales[tokenId] = Sales(seller);\r\n        return true;\r\n    }\r\n\r\n    function deleteSale(uint256 tokenId) public returns (bool) {\r\n        delete sales[tokenId];\r\n        return true;\r\n    }\r\n\r\n    function getSales(uint256 tokenId) public view returns (Sales memory) {\r\n        return sales[tokenId];\r\n    }\r\n\r\n    function getAdmin() public view returns (address) {\r\n        return admin;\r\n    }\r\n\r\n    function trading(uint256 tokenId) public payable returns (bool) {\r\n        address buyer = msg.sender;\r\n        address payable seller = payable(sales[tokenId].seller);\r\n        emit SendEther(buyer, seller, msg.value);\r\n        seller.transfer(msg.value);\r\n\r\n        DonateNFT(NFTAddress).transferFrom(address(this), buyer, tokenId);\r\n\r\n        deleteSale(tokenId);\r\n\r\n        return true;\r\n    }\r\n\r\n    function donating(\r\n        address donateGetter,\r\n        string memory assetName,\r\n        string memory assetDesc,\r\n        string memory assetImageUrl\r\n    ) public payable returns (DonateNFT.Tokens memory) {\r\n        address donatingAddress = msg.sender;\r\n        address payable getter = payable(donateGetter);\r\n        getter.transfer(msg.value);\r\n\r\n        return\r\n            DonateNFT(NFTAddress).create(\r\n                donatingAddress,\r\n                assetName,\r\n                assetDesc,\r\n                assetImageUrl,\r\n                msg.value\r\n            );\r\n    }\r\n}\r\n",
  "sourcePath": "D:\\SSAFY\\work_SSAFY\\PJT\\S06P22D109\\smart-contracts\\contracts\\Market.sol",
  "compiler": {
    "name": "solc",
    "version": "0.8.10+commit.fc410830.Emscripten.clang"
  },
  "schemaVersion": "3.4.3",
  "updatedAt": "2022-04-05T08:23:48.082Z",
  "devdoc": {
    "kind": "dev",
    "methods": {
      "owner()": {
        "details": "Returns the address of the current owner."
      },
      "renounceOwnership()": {
        "details": "Leaves the contract without owner. It will not be possible to call `onlyOwner` functions anymore. Can only be called by the current owner. NOTE: Renouncing ownership will leave the contract without an owner, thereby removing any functionality that is only available to the owner."
      },
      "transferOwnership(address)": {
        "details": "Transfers ownership of the contract to a new account (`newOwner`). Can only be called by the current owner."
      }
    },
    "version": 1
  },
  "userdoc": {
    "kind": "user",
    "methods": {},
    "version": 1
  }
}