{
  "contractName": "Market",
  "abi": [
    {
      "inputs": [],
      "stateMutability": "nonpayable",
      "type": "constructor"
    },
    {
      "anonymous": false,
      "inputs": [
        {
          "indexed": true,
          "internalType": "address",
          "name": "previousOwner",
          "type": "address"
        },
        {
          "indexed": true,
          "internalType": "address",
          "name": "newOwner",
          "type": "address"
        }
      ],
      "name": "OwnershipTransferred",
      "type": "event"
    },
    {
      "anonymous": false,
      "inputs": [
        {
          "indexed": true,
          "internalType": "address",
          "name": "sender",
          "type": "address"
        },
        {
          "indexed": true,
          "internalType": "address",
          "name": "receiver",
          "type": "address"
        },
        {
          "indexed": false,
          "internalType": "uint256",
          "name": "price",
          "type": "uint256"
        }
      ],
      "name": "SendEther",
      "type": "event"
    },
    {
      "inputs": [],
      "name": "NFTAddress",
      "outputs": [
        {
          "internalType": "address",
          "name": "",
          "type": "address"
        }
      ],
      "stateMutability": "view",
      "type": "function",
      "constant": true
    },
    {
      "inputs": [],
      "name": "admin",
      "outputs": [
        {
          "internalType": "address",
          "name": "",
          "type": "address"
        }
      ],
      "stateMutability": "view",
      "type": "function",
      "constant": true
    },
    {
      "inputs": [],
      "name": "myAddress",
      "outputs": [
        {
          "internalType": "address",
          "name": "",
          "type": "address"
        }
      ],
      "stateMutability": "view",
      "type": "function",
      "constant": true
    },
    {
      "inputs": [],
      "name": "owner",
      "outputs": [
        {
          "internalType": "address",
          "name": "",
          "type": "address"
        }
      ],
      "stateMutability": "view",
      "type": "function",
      "constant": true
    },
    {
      "inputs": [],
      "name": "renounceOwnership",
      "outputs": [],
      "stateMutability": "nonpayable",
      "type": "function"
    },
    {
      "inputs": [
        {
          "internalType": "uint256",
          "name": "",
          "type": "uint256"
        }
      ],
      "name": "sales",
      "outputs": [
        {
          "internalType": "address",
          "name": "seller",
          "type": "address"
        }
      ],
      "stateMutability": "view",
      "type": "function",
      "constant": true
    },
    {
      "inputs": [
        {
          "internalType": "address",
          "name": "newOwner",
          "type": "address"
        }
      ],
      "name": "transferOwnership",
      "outputs": [],
      "stateMutability": "nonpayable",
      "type": "function"
    },
    {
      "inputs": [
        {
          "internalType": "address",
          "name": "_NFTAddress",
          "type": "address"
        }
      ],
      "name": "setNFTAddress",
      "outputs": [],
      "stateMutability": "nonpayable",
      "type": "function"
    },
    {
      "inputs": [],
      "name": "getNFTAddress",
      "outputs": [
        {
          "internalType": "address",
          "name": "",
          "type": "address"
        }
      ],
      "stateMutability": "view",
      "type": "function",
      "constant": true
    },
    {
      "inputs": [
        {
          "internalType": "address",
          "name": "seller",
          "type": "address"
        },
        {
          "internalType": "uint256",
          "name": "tokenId",
          "type": "uint256"
        }
      ],
      "name": "newSale",
      "outputs": [
        {
          "internalType": "bool",
          "name": "",
          "type": "bool"
        }
      ],
      "stateMutability": "nonpayable",
      "type": "function"
    },
    {
      "inputs": [
        {
          "internalType": "uint256",
          "name": "tokenId",
          "type": "uint256"
        },
        {
          "internalType": "bool",
          "name": "isCancel",
          "type": "bool"
        }
      ],
      "name": "deleteSale",
      "outputs": [
        {
          "internalType": "bool",
          "name": "",
          "type": "bool"
        }
      ],
      "stateMutability": "nonpayable",
      "type": "function"
    },
    {
      "inputs": [
        {
          "internalType": "uint256",
          "name": "tokenId",
          "type": "uint256"
        }
      ],
      "name": "getSales",
      "outputs": [
        {
          "components": [
            {
              "internalType": "address",
              "name": "seller",
              "type": "address"
            }
          ],
          "internalType": "struct Market.Sales",
          "name": "",
          "type": "tuple"
        }
      ],
      "stateMutability": "view",
      "type": "function",
      "constant": true
    },
    {
      "inputs": [],
      "name": "getAdmin",
      "outputs": [
        {
          "internalType": "address",
          "name": "",
          "type": "address"
        }
      ],
      "stateMutability": "view",
      "type": "function",
      "constant": true
    },
    {
      "inputs": [
        {
          "internalType": "uint256",
          "name": "tokenId",
          "type": "uint256"
        }
      ],
      "name": "trading",
      "outputs": [
        {
          "internalType": "bool",
          "name": "",
          "type": "bool"
        }
      ],
      "stateMutability": "payable",
      "type": "function",
      "payable": true
    },
    {
      "inputs": [
        {
          "internalType": "address",
          "name": "donateGetter",
          "type": "address"
        },
        {
          "internalType": "string",
          "name": "assetName",
          "type": "string"
        },
        {
          "internalType": "string",
          "name": "assetDesc",
          "type": "string"
        },
        {
          "internalType": "string",
          "name": "assetImageUrl",
          "type": "string"
        }
      ],
      "name": "donating",
      "outputs": [
        {
          "components": [
            {
              "internalType": "address",
              "name": "owner",
              "type": "address"
            },
            {
              "internalType": "string",
              "name": "assetName",
              "type": "string"
            },
            {
              "internalType": "string",
              "name": "assetDesc",
              "type": "string"
            },
            {
              "internalType": "uint256",
              "name": "tokenId",
              "type": "uint256"
            },
            {
              "internalType": "string",
              "name": "tokenURI",
              "type": "string"
            },
            {
              "internalType": "uint256",
              "name": "donateAmmount",
              "type": "uint256"
            }
          ],
          "internalType": "struct DonateNFT.Tokens",
          "name": "",
          "type": "tuple"
        }
      ],
      "stateMutability": "payable",
      "type": "function",
      "payable": true
    }
  ],
  "bytecode": "0x608060405234801561001057600080fd5b5061002d6100226100b460201b60201c565b6100bc60201b60201c565b33600160006101000a81548173ffffffffffffffffffffffffffffffffffffffff021916908373ffffffffffffffffffffffffffffffffffffffff16021790555030600360006101000a81548173ffffffffffffffffffffffffffffffffffffffff021916908373ffffffffffffffffffffffffffffffffffffffff160217905550610180565b600033905090565b60008060009054906101000a900473ffffffffffffffffffffffffffffffffffffffff169050816000806101000a81548173ffffffffffffffffffffffffffffffffffffffff021916908373ffffffffffffffffffffffffffffffffffffffff1602179055508173ffffffffffffffffffffffffffffffffffffffff168173ffffffffffffffffffffffffffffffffffffffff167f8be0079c531659141344cd1fd0a4f28419497f9722a3daafe3b4186f6b6457e060405160405180910390a35050565b61166c8061018f6000396000f3fe6080604052600436106100e85760003560e01c8063715018a61161008a578063f2fde38b11610059578063f2fde38b146102eb578063f644529714610314578063f851a44014610344578063fa36543f1461036f576100e8565b8063715018a6146102415780638da5cb5b14610258578063b5f522f714610283578063b9618478146102c0576100e8565b8063310c87cc116100c6578063310c87cc1461018557806369d03738146101b05780636e9960c3146101d95780636f905b7814610204576100e8565b8063180d3fbb146100ed57806326b85ee11461012a5780632e0c9ced14610155575b600080fd5b3480156100f957600080fd5b50610114600480360381019061010f9190610d47565b6103ac565b6040516101219190610da2565b60405180910390f35b34801561013657600080fd5b5061013f610436565b60405161014c9190610dcc565b60405180910390f35b61016f600480360381019061016a9190610de7565b61045c565b60405161017c9190610da2565b60405180910390f35b34801561019157600080fd5b5061019a6105ed565b6040516101a79190610dcc565b60405180910390f35b3480156101bc57600080fd5b506101d760048036038101906101d29190610e14565b610613565b005b3480156101e557600080fd5b506101ee610657565b6040516101fb9190610dcc565b60405180910390f35b34801561021057600080fd5b5061022b60048036038101906102269190610de7565b610681565b6040516102389190610e6c565b60405180910390f35b34801561024d57600080fd5b50610256610704565b005b34801561026457600080fd5b5061026d61078c565b60405161027a9190610dcc565b60405180910390f35b34801561028f57600080fd5b506102aa60048036038101906102a59190610de7565b6107b5565b6040516102b79190610dcc565b60405180910390f35b3480156102cc57600080fd5b506102d56107f3565b6040516102e29190610dcc565b60405180910390f35b3480156102f757600080fd5b50610312600480360381019061030d9190610e14565b61081d565b005b61032e60048036038101906103299190610fcd565b610915565b60405161033b91906111b6565b60405180910390f35b34801561035057600080fd5b50610359610a25565b6040516103669190610dcc565b60405180910390f35b34801561037b57600080fd5b5061039660048036038101906103919190611204565b610a4b565b6040516103a39190610da2565b60405180910390f35b600060405180602001604052808473ffffffffffffffffffffffffffffffffffffffff168152506004600084815260200190815260200160002060008201518160000160006101000a81548173ffffffffffffffffffffffffffffffffffffffff021916908373ffffffffffffffffffffffffffffffffffffffff16021790555090505092915050565b600360009054906101000a900473ffffffffffffffffffffffffffffffffffffffff1681565b60008033905060006004600085815260200190815260200160002060000160009054906101000a900473ffffffffffffffffffffffffffffffffffffffff1690508073ffffffffffffffffffffffffffffffffffffffff168273ffffffffffffffffffffffffffffffffffffffff167f252b244cefdc24522fc84ee13ea3162cf8b8530956a0813769abe078fa30a327346040516104fa9190611253565b60405180910390a38073ffffffffffffffffffffffffffffffffffffffff166108fc349081150290604051600060405180830381858888f19350505050158015610548573d6000803e3d6000fd5b50600260009054906101000a900473ffffffffffffffffffffffffffffffffffffffff1673ffffffffffffffffffffffffffffffffffffffff166323b872dd3084876040518463ffffffff1660e01b81526004016105a89392919061126e565b600060405180830381600087803b1580156105c257600080fd5b505af11580156105d6573d6000803e3d6000fd5b505050506105e5846000610a4b565b505050919050565b600260009054906101000a900473ffffffffffffffffffffffffffffffffffffffff1681565b80600260006101000a81548173ffffffffffffffffffffffffffffffffffffffff021916908373ffffffffffffffffffffffffffffffffffffffff16021790555050565b6000600160009054906101000a900473ffffffffffffffffffffffffffffffffffffffff16905090565b610689610c2a565b600460008381526020019081526020016000206040518060200160405290816000820160009054906101000a900473ffffffffffffffffffffffffffffffffffffffff1673ffffffffffffffffffffffffffffffffffffffff1673ffffffffffffffffffffffffffffffffffffffff16815250509050919050565b61070c610b5e565b73ffffffffffffffffffffffffffffffffffffffff1661072a61078c565b73ffffffffffffffffffffffffffffffffffffffff1614610780576040517f08c379a000000000000000000000000000000000000000000000000000000000815260040161077790611302565b60405180910390fd5b61078a6000610b66565b565b60008060009054906101000a900473ffffffffffffffffffffffffffffffffffffffff16905090565b60046020528060005260406000206000915090508060000160009054906101000a900473ffffffffffffffffffffffffffffffffffffffff16905081565b6000600260009054906101000a900473ffffffffffffffffffffffffffffffffffffffff16905090565b610825610b5e565b73ffffffffffffffffffffffffffffffffffffffff1661084361078c565b73ffffffffffffffffffffffffffffffffffffffff1614610899576040517f08c379a000000000000000000000000000000000000000000000000000000000815260040161089090611302565b60405180910390fd5b600073ffffffffffffffffffffffffffffffffffffffff168173ffffffffffffffffffffffffffffffffffffffff161415610909576040517f08c379a000000000000000000000000000000000000000000000000000000000815260040161090090611394565b60405180910390fd5b61091281610b66565b50565b61091d610c53565b600033905060008690508073ffffffffffffffffffffffffffffffffffffffff166108fc349081150290604051600060405180830381858888f1935050505015801561096d573d6000803e3d6000fd5b50600260009054906101000a900473ffffffffffffffffffffffffffffffffffffffff1673ffffffffffffffffffffffffffffffffffffffff16631157022f83888888346040518663ffffffff1660e01b81526004016109d19594939291906113ed565b6000604051808303816000875af11580156109f0573d6000803e3d6000fd5b505050506040513d6000823e3d601f19601f82011682018060405250810190610a1991906115ed565b92505050949350505050565b600160009054906101000a900473ffffffffffffffffffffffffffffffffffffffff1681565b60008115610b1b57600260009054906101000a900473ffffffffffffffffffffffffffffffffffffffff1673ffffffffffffffffffffffffffffffffffffffff166323b872dd306004600087815260200190815260200160002060000160009054906101000a900473ffffffffffffffffffffffffffffffffffffffff16866040518463ffffffff1660e01b8152600401610ae89392919061126e565b600060405180830381600087803b158015610b0257600080fd5b505af1158015610b16573d6000803e3d6000fd5b505050505b60046000848152602001908152602001600020600080820160006101000a81549073ffffffffffffffffffffffffffffffffffffffff0219169055505092915050565b600033905090565b60008060009054906101000a900473ffffffffffffffffffffffffffffffffffffffff169050816000806101000a81548173ffffffffffffffffffffffffffffffffffffffff021916908373ffffffffffffffffffffffffffffffffffffffff1602179055508173ffffffffffffffffffffffffffffffffffffffff168173ffffffffffffffffffffffffffffffffffffffff167f8be0079c531659141344cd1fd0a4f28419497f9722a3daafe3b4186f6b6457e060405160405180910390a35050565b6040518060200160405280600073ffffffffffffffffffffffffffffffffffffffff1681525090565b6040518060c00160405280600073ffffffffffffffffffffffffffffffffffffffff16815260200160608152602001606081526020016000815260200160608152602001600081525090565b6000604051905090565b600080fd5b600080fd5b600073ffffffffffffffffffffffffffffffffffffffff82169050919050565b6000610cde82610cb3565b9050919050565b610cee81610cd3565b8114610cf957600080fd5b50565b600081359050610d0b81610ce5565b92915050565b6000819050919050565b610d2481610d11565b8114610d2f57600080fd5b50565b600081359050610d4181610d1b565b92915050565b60008060408385031215610d5e57610d5d610ca9565b5b6000610d6c85828601610cfc565b9250506020610d7d85828601610d32565b9150509250929050565b60008115159050919050565b610d9c81610d87565b82525050565b6000602082019050610db76000830184610d93565b92915050565b610dc681610cd3565b82525050565b6000602082019050610de16000830184610dbd565b92915050565b600060208284031215610dfd57610dfc610ca9565b5b6000610e0b84828501610d32565b91505092915050565b600060208284031215610e2a57610e29610ca9565b5b6000610e3884828501610cfc565b91505092915050565b610e4a81610cd3565b82525050565b602082016000820151610e666000850182610e41565b50505050565b6000602082019050610e816000830184610e50565b92915050565b600080fd5b600080fd5b6000601f19601f8301169050919050565b7f4e487b7100000000000000000000000000000000000000000000000000000000600052604160045260246000fd5b610eda82610e91565b810181811067ffffffffffffffff82111715610ef957610ef8610ea2565b5b80604052505050565b6000610f0c610c9f565b9050610f188282610ed1565b919050565b600067ffffffffffffffff821115610f3857610f37610ea2565b5b610f4182610e91565b9050602081019050919050565b82818337600083830152505050565b6000610f70610f6b84610f1d565b610f02565b905082815260208101848484011115610f8c57610f8b610e8c565b5b610f97848285610f4e565b509392505050565b600082601f830112610fb457610fb3610e87565b5b8135610fc4848260208601610f5d565b91505092915050565b60008060008060808587031215610fe757610fe6610ca9565b5b6000610ff587828801610cfc565b945050602085013567ffffffffffffffff81111561101657611015610cae565b5b61102287828801610f9f565b935050604085013567ffffffffffffffff81111561104357611042610cae565b5b61104f87828801610f9f565b925050606085013567ffffffffffffffff8111156110705761106f610cae565b5b61107c87828801610f9f565b91505092959194509250565b600081519050919050565b600082825260208201905092915050565b60005b838110156110c25780820151818401526020810190506110a7565b838111156110d1576000848401525b50505050565b60006110e282611088565b6110ec8185611093565b93506110fc8185602086016110a4565b61110581610e91565b840191505092915050565b61111981610d11565b82525050565b600060c0830160008301516111376000860182610e41565b506020830151848203602086015261114f82826110d7565b9150506040830151848203604086015261116982826110d7565b915050606083015161117e6060860182611110565b506080830151848203608086015261119682826110d7565b91505060a08301516111ab60a0860182611110565b508091505092915050565b600060208201905081810360008301526111d0818461111f565b905092915050565b6111e181610d87565b81146111ec57600080fd5b50565b6000813590506111fe816111d8565b92915050565b6000806040838503121561121b5761121a610ca9565b5b600061122985828601610d32565b925050602061123a858286016111ef565b9150509250929050565b61124d81610d11565b82525050565b60006020820190506112686000830184611244565b92915050565b60006060820190506112836000830186610dbd565b6112906020830185610dbd565b61129d6040830184611244565b949350505050565b600082825260208201905092915050565b7f4f776e61626c653a2063616c6c6572206973206e6f7420746865206f776e6572600082015250565b60006112ec6020836112a5565b91506112f7826112b6565b602082019050919050565b6000602082019050818103600083015261131b816112df565b9050919050565b7f4f776e61626c653a206e6577206f776e657220697320746865207a65726f206160008201527f6464726573730000000000000000000000000000000000000000000000000000602082015250565b600061137e6026836112a5565b915061138982611322565b604082019050919050565b600060208201905081810360008301526113ad81611371565b9050919050565b60006113bf82611088565b6113c981856112a5565b93506113d98185602086016110a4565b6113e281610e91565b840191505092915050565b600060a0820190506114026000830188610dbd565b818103602083015261141481876113b4565b9050818103604083015261142881866113b4565b9050818103606083015261143c81856113b4565b905061144b6080830184611244565b9695505050505050565b600080fd5b600080fd5b60008151905061146e81610ce5565b92915050565b600061148761148284610f1d565b610f02565b9050828152602081018484840111156114a3576114a2610e8c565b5b6114ae8482856110a4565b509392505050565b600082601f8301126114cb576114ca610e87565b5b81516114db848260208601611474565b91505092915050565b6000815190506114f381610d1b565b92915050565b600060c0828403121561150f5761150e611455565b5b61151960c0610f02565b905060006115298482850161145f565b600083015250602082015167ffffffffffffffff81111561154d5761154c61145a565b5b611559848285016114b6565b602083015250604082015167ffffffffffffffff81111561157d5761157c61145a565b5b611589848285016114b6565b604083015250606061159d848285016114e4565b606083015250608082015167ffffffffffffffff8111156115c1576115c061145a565b5b6115cd848285016114b6565b60808301525060a06115e1848285016114e4565b60a08301525092915050565b60006020828403121561160357611602610ca9565b5b600082015167ffffffffffffffff81111561162157611620610cae565b5b61162d848285016114f9565b9150509291505056fea2646970667358221220e791e75a9604895882a0bb8779d08a490a124c443e8161b751c22ab420927a5264736f6c634300080a0033",
  "immutableReferences": {},
  "source": "// SPDX-License-Identifier: MIT\r\npragma solidity ^0.8.4;\r\n\r\nimport \"./access/Ownable.sol\";\r\nimport \"./token/ERC20/ERC20.sol\";\r\nimport \"./token/ERC721/ERC721.sol\";\r\nimport \"./DonateNFT.sol\";\r\n\r\ncontract Market is Ownable {\r\n    address public admin;\r\n    address public NFTAddress;\r\n    address public myAddress;\r\n    mapping(uint256 => Sales) public sales;\r\n\r\n    struct Sales {\r\n        address seller;\r\n    }\r\n\r\n    event SendEther(\r\n        address indexed sender,\r\n        address indexed receiver,\r\n        uint256 price\r\n    );\r\n\r\n    constructor() {\r\n        admin = msg.sender;\r\n        myAddress = address(this);\r\n    }\r\n\r\n    function setNFTAddress(address _NFTAddress) public {\r\n        NFTAddress = _NFTAddress;\r\n    }\r\n\r\n    function getNFTAddress() public view returns (address) {\r\n        return NFTAddress;\r\n    }\r\n\r\n    function newSale(address seller, uint256 tokenId) public returns (bool) {\r\n        sales[tokenId] = Sales(seller);\r\n    }\r\n\r\n    function deleteSale(uint256 tokenId, bool isCancel) public returns (bool) {\r\n        if (isCancel) {\r\n            DonateNFT(NFTAddress).transferFrom(\r\n                address(this),\r\n                sales[tokenId].seller,\r\n                tokenId\r\n            );\r\n        }\r\n\r\n        delete sales[tokenId];\r\n    }\r\n\r\n    function getSales(uint256 tokenId) public view returns (Sales memory) {\r\n        return sales[tokenId];\r\n    }\r\n\r\n    function getAdmin() public view returns (address) {\r\n        return admin;\r\n    }\r\n\r\n    function trading(uint256 tokenId) public payable returns (bool) {\r\n        address buyer = msg.sender;\r\n        address payable seller = payable(sales[tokenId].seller);\r\n        emit SendEther(buyer, seller, msg.value);\r\n        seller.transfer(msg.value);\r\n\r\n        DonateNFT(NFTAddress).transferFrom(address(this), buyer, tokenId);\r\n\r\n        deleteSale(tokenId, false);\r\n    }\r\n\r\n    function donating(\r\n        address donateGetter,\r\n        string memory assetName,\r\n        string memory assetDesc,\r\n        string memory assetImageUrl\r\n    ) public payable returns (DonateNFT.Tokens memory) {\r\n        address donatingAddress = msg.sender;\r\n        address payable getter = payable(donateGetter);\r\n        getter.transfer(msg.value);\r\n\r\n        return\r\n            DonateNFT(NFTAddress).create(\r\n                donatingAddress,\r\n                assetName,\r\n                assetDesc,\r\n                assetImageUrl,\r\n                msg.value\r\n            );\r\n    }\r\n}\r\n",
  "sourcePath": "D:\\SSAFY\\work_SSAFY\\PJT\\S06P22D109\\smart-contracts\\contracts\\Market.sol",
  "compiler": {
    "name": "solc",
    "version": "0.8.10+commit.fc410830.Emscripten.clang"
  },
  "schemaVersion": "3.4.3",
  "updatedAt": "2022-04-06T01:37:04.974Z",
  "networkType": "ethereum",
  "devdoc": {
    "kind": "dev",
    "methods": {
      "owner()": {
        "details": "Returns the address of the current owner."
      },
      "renounceOwnership()": {
        "details": "Leaves the contract without owner. It will not be possible to call `onlyOwner` functions anymore. Can only be called by the current owner. NOTE: Renouncing ownership will leave the contract without an owner, thereby removing any functionality that is only available to the owner."
      },
      "transferOwnership(address)": {
        "details": "Transfers ownership of the contract to a new account (`newOwner`). Can only be called by the current owner."
      }
    },
    "version": 1
  },
  "userdoc": {
    "kind": "user",
    "methods": {},
    "version": 1
  }
}